:020000040000fa
:080000000002040000000000f2
:020000040000fa
:10040000afe921000eff27000e0188000000000068
:100410000c00070040b32200010020000f0007007d
:10042000000020000000e000020032000000020096
:10043000000000008c280200000000000040da00ec
:100440000000fe00800520000000e00002003200f5
:10045000002020009001880000000600a102880012
:10046000800078000000eb001a003700e2804000b6
:1004700054a0b4009101ba00e280400054a0b4003e
:100480009102ba00e280400054a0b4000002eb00e8
:10049000472bde00f507b200a6018800602ce100c2
:1004a00008003a000049eb000201e80002003900b0
:1004b0003420ec0002f0a0008301e900f9ff3e00c7
:1004c000040037006128e100010032000082eb00e7
:1004d000040007001101ba000200e000e3ff3a0047
:1004e0000000060004d0a300e20f49001c00390000
:1004f000810278003549ba000201e80002003900a3
:100500003420ec0002f0a0008301e9000f0032006b
:100510002549ba000201e800020039003420ec004d
:1005200002f0a0008301e900080032000400e000ae
:100530000600320015c9ba000201e80002003900c5
:100540003420ec0002f0a0008301e9008180e80083
:1005500054a0b4000300e000e2ff3a0000000600ef
:100560009102ba00055978008301e900f7ff3200d3
:10057000c82ade00055978008301e900f3ff320044
:100580000400e000f1ff320011d9ba00eeff37009d
:1005900028140400000000005e2704000000000092
:1005a0009c27040000000000b423040000000000a9
:1005b0000c1f0400000000000040da000000fe00f4
:1005c0001000fa0030079800410798005207980081
:1005d0003e009000e10f5000030032003e0090000a
:1005e000e20f50003b003a005e00900020079800a8
:1005f0004e0090001007980030003700de00900099
:1006000033002000c2cf28001e009000da0e070041
:10061000000f78001e00e0001b003a001e00900052
:10062000104078000000fb00700798007e009000ea
:10063000ea0f5000040032007e009000ed0f5000e1
:100640000600320009003700320020008000eb0075
:1006500010002000720e0700040037001200200076
:100660008000eb000000eb006d0e07001e00900004
:100670000000e800100798005e0090000000e9000c
:10068000500798000d0037001e0190009e00780072
:10069000100020008c0e07009e0078005e00900085
:1006a00001005000500798001e007800800078007c
:1006b0001e00900001004000100798005e009000ae
:1006c0000000e000cdff3a002e0090006007980087
:1006d000020037000080eb00600798006e00900079
:1006e0000080fa00000006008001eb0002003700e5
:1006f00061f079008301e800828f5100fcff3a002d
:100700000000060000027800808f50000a003100cf
:1007100082814000808f51000700360002024000b5
:100720008000eb00436278008100e800828f500077
:1007300007003200fbff37000200e0000400320037
:1007400002814000315a7800828f5000fdff3a004c
:10075000000006008001eb00020037008171780084
:100760008301e800828f5100fcff3a000000060080
:100770000003780080027800020278008001eb001c
:10078000080037000402e90063c07800805a78004e
:100790008301e8000004e00002003a008000eb0062
:1007a00006003700828f5100f6ff3a00fbff37004a
:1007b0000040eb0080f07a008100e800848f500058
:1007c000fbff3a0006007800000006000000fa0077
:1007d000cfb8970068815700c0e7210002000700ea
:1007e0000080fa0000000600fe874700889fbe00d8
:1007f0008a9fbe008c9fbe008e1f7800f0b79f00be
:100800000107780082bf9f000000eb00a0b79f00a7
:100810009f0237008006eb0050c2b30080cf50002b
:10082000090032000100fb00ffb09700a30207009f
:10083000e10f400096023200afb097008100e8005f
:10084000a1b79f00920237009e407800d0c2b3004b
:1008500080cf50000c00320007003c006d4050007b
:1008600080cf50000a0032006b40400080cf500023
:100870000e003a000800370000c3b30080cf5000dc
:100880000a003a00060037000d30a00005003700ce
:100890000d00a000030037000d10a000010037007c
:1008a0000d20a0000e07e800e7ff37000d18a30099
:1008b000010032000d00a1000d38a300010032003c
:1008c0000d20a1000100fb0002fd2f0002004000ee
:1008d000e90f50000e003e000002eb00c4b79f007d
:1008e00082017800cfb297006a28b9001e01fb0090
:1008f0000001410003014100c2b79f005e00fb0000
:1009000003004000e90f50000b003e00f5ff3700e8
:100910000006eb00ccb79f00a0c2b30080cf500010
:1009200005003a000fb89700c000780080bf9f0014
:10093000c1b79f000e07e8000001eb00b2b79f00af
:10094000e0c2b3009e4f100018003a000de0a00076
:100950008e00e80064405000914f10000200320009
:10096000010778000c0037000fba9700c402780026
:1009700084bf9f00b5b79f000e87e8000b003700cb
:100980003fb697006a60b9000000410003004000d4
:10099000b0b79f000e07e8001e01fb0003fd2f000b
:1009a00003004100e90f5000f5ff3600be4078001b
:1009b000e1d79f00c0c6b30080cf500022003200b4
:1009c0000f003c006940500080cf5000770032009b
:1009d00004003c000104e000310232006b40500092
:1009e0000f00370040c6b30080cf500093003200a4
:1009f0006540400080cf50008b003a008f003700e8
:100a000030c7b30080cf50001a00320007003c000e
:100a10006440500080cf5000110032000040e800d8
:100a200080cf500080003a000f00370050c7b3005d
:100a300080cf5000800032006340400080cf5000e3
:100a400079003a0009003700000028000d48a30093
:100a500001003a000001200080867600d3ff3700b5
:100a60000d60a000750037000d50a0000d70a000b3
:100a7000720037008fb897004100780081bf9f0057
:100a8000000478000000e00001003a0048e4210082
:100a90008004eb00010037008104e8008900780041
:100aa000088044001004e000fbff3a003fb19700cb
:100ab0000200e00003003200890f51000100310004
:100ac000820478000002eb00e4af9f00cfb29700f1
:100ad000898f52000200360009805200e0af9f006b
:100ae0004368de00e10660001b003a000d06780056
:100af00009003700ffb0970000022000ef01070057
:100b0000e10f4000030032002fb097000000e80022
:100b1000a0b79f000c06e800efa89700810f5600d1
:100b2000f4ff3a000081eb00e2af9f000a003700bb
:100b3000880078003100fb0001047800ffb09700c6
:100b4000de010700e10f4000030032002fb29700e2
:100b50000402e800a4b79f000900e90080047800bf
:100b6000e10f4000f2ff3a000006eb000d00e0004c
:100b70000a003a00c6013700ffb0970000022000cb
:100b8000ce010700e10f400003003200afb2970032
:100b90008502e800a5b79f000c06e8006fa8970043
:100ba000800f5600f4ff3a00b90137008fb8970064
:100bb0004100780081bf9f00cf80de0001017800f6
:100bc000820178000205be000004be000203be00e0
:100bd0000002be004822de00482edd00040276003e
:100be000e4d79f000d48a3000a0032000404e0008f
:100bf00008003200e14f42000600320071fd2f0074
:100c0000018047000448780018409800290020001f
:100c100002003700f0d79f001900200072fd2f005e
:100c200002844700a1ff370064fd2f0004844700c1
:100c3000190020009dff37000d0cb3000d00780057
:100c4000000cb20028003a000d00e00005003d0055
:100c50008fba97004505be004504be0085bf9f00c2
:100c6000140037000d48a3000b0032000fbe9700a0
:100c70004c00be008cbf9f004f89de00cf91de008c
:100c80000002be0002037800820378000605be0061
:100c90000404be00070037008fb8970041007800b9
:100ca00081bf9f0000047800cfc4de0009057800f2
:100cb0008a057800e00f5400e08f5c00e00f5d00d3
:100cc000e08f5d001f003d003d00b3006000b800f4
:100cd0006011b80008045000898458000a055900c2
:100ce0008b855900170037000d00e00005003d001e
:100cf0000fb997004205be004204be0082bf9f00ac
:100d0000100037000d48a300070032000fba97000b
:100d10004400be0084bf9f006011b8000205be0001
:100d20000004be00070037008fba97004500780026
:100d300085bf9f0000047800090020000a00200001
:100d40000b0020003fb697000c00e00007003a00bf
:100d5000e00f5400e08f5c00e00f5d00e08f5d006d
:100d600002003a0010002000b0b79f008d0078000c
:100d7000010cb200e1b79f0000042000808f5000fa
:100d80003000320003003c000100e00008003200a7
:100d900040003700000820006fb19700800f51001d
:100da00014003200000c2000800f510039003a007e
:100db00014c0b30045da21000b0037000400fb002b
:100dc0004300dd00050040005001be004000be00b1
:100dd0000040e10001c8e10002d0e10003d8e100d9
:100de0002b0039000442e800f44f5200f3ff3a00b0
:100df0002700370000012000010020006011b8002a
:100e000014c0b3000040e10001c8e10002d0e100dd
:100e100003d8e1001e003900450020000000d0008a
:100e20008180d2000281d2008381d2008502e90054
:100e3000faff3a000442e800f04f5200f1ff3a0096
:100e40001300370080002000010020006011b8006e
:100e500014c0b3000040e10001c8e10002d0e1008d
:100e600003d8e1000a0039003c0020000000d00057
:100e70008180d2000281d2008381d2000c06e90079
:100e8000faff3a000442e800f54f5200f1ff3a0041
:100e9000e4d79f00efd097000100fb003fb197001f
:100ea000820f500002003d00e2d79f00040037008f
:100eb0003fb29700800f520001003d00b0b79f0085
:100ec000cfb297000500e0000400320063806600a6
:100ed000020032008502e900c5b79f000de8a300bb
:100ee0000b0032004fb697003fb09700800f5600be
:100ef00003003c008000eb00c1b79f0004003700f6
:100f00004fb197003fb2970004015100c2b79f0054
:100f1000efd297000500fb000006eb00dcaf9f005e
:100f2000cfb09700808f5000020034000080500046
:100f3000d0af9f000d28a30037003200e18066008b
:100f40000d18a3000c003200d00220000100e000c8
:100f500001003a000080e900ffb09700d7000700c9
:100f6000e10f40000e0032002fb197000201e800af
:100f7000a2b79f000a0037000100e000080032001d
:100f8000ffb0970000022000cc000700e10f4000f6
:100f9000030032002fb297000402e800a4b79f00bc
:100fa000dfaa97000500e0000f0032000006eb000a
:100fb000ffb0970000032000c0000700e10f4000d1
:100fc000030032002fb097000000e800a0b79f0098
:100fd0000c06e800dfa89700810f5600f4ff3a00e6
:100fe0000001eb00d2af9f003fb29700c320dd00ad
:100ff000c0d921008080400091b79f004220dd00d1
:101000006400500080b79f006320b900f0af9f00dc
:101010006306500084003700dfaa97000500e00057
:1010200011003200688066000f003a000006780068
:10103000ffb0970000022000a0000700e10f400071
:10104000030032002fb097000000e800a0b79f0017
:101050000c06e800dfa89700810f5600f4ff3a0065
:101060000001eb00d2af9f00e18066000d18a300e5
:101070000c003200d00220000100e00001003a0024
:101080000080e900ffb097008c000700e10f4000ee
:10109000d5ff32002fb297000402e800a4b79f00ea
:1010a000d1ff37000100e000cfff3200ffb0970012
:1010b0000002200081000700e10f4000caff32005b
:1010c000afb297008502e800a5b79f00c6ff3700c2
:1010d00000042000efb09700808f500031003200f4
:1010e00003003c000100e000080032003e00370031
:1010f000000820006fb19700800f510011003200ee
:10110000000c2000800f510037003a001fb09700fc
:101110003002be002003be000800be000a01be006f
:101120009a010700a4002000050020006033b800e9
:101130009d01070004c3b30004424000e4d79f00b0
:1011400029003700b5e42100d5b79f000d58a30052
:1011500002003a00c0e52100d0b79f001400200033
:10116000050020006033b8008fb097008100e900cf
:10117000050033000402d0008582d2000683d2002d
:101180008783d200f9ff37000800be000a01be00c5
:101190007e0107006f0060005fb197006240780039
:1011a0001000370014002000050020006033b80054
:1011b0000c0078000000e900050033000402d000b4
:1011c0008582d2000683d2008783d200f9ff3700e0
:1011d0000800be000a01be006c0107006740600005
:1011e0000043b000e0d79f00efd097000100fb0064
:1011f000ffb0970031000700e10f4000030032000c
:101200002fb197000201e800a2b79f001fb297001c
:101210006802520094b79f008fb29700e482520098
:1012200085b79f0063065600d0ff2f003fb197009f
:101230000090b9007faa97000000420063005000b0
:10124000800f5600a2ff3a000d38a30010003200b4
:10125000dfaa97000500e0000d0034000006eb0057
:10126000ffb097000002200014000700e10f4000cb
:10127000030032002fb097000000e800a0b79f00e5
:101280000c06e800dfa89700810f5600f4ff3a0033
:10129000be407800e1d79f000104e0005dfd3a0008
:1012a0002fb097004f0778004f06be004f05be00d5
:1012b0004f04be00ef01b10000000600889fbe0091
:1012c0000001780001047800b10090000118a3002b
:1012d000400032000198a30003003a00180090007b
:1012e0000000e0003b003a000190a00031049800ab
:1012f00082047800f90fb200180090000000e000ae
:1013000002003a0028009000000c7800ea8f540098
:1013100006003a00380090000078a30003003a006d
:1013200088007800d0002000e4ff07001802900039
:101330006121b90058009000e8009000800f510032
:10134000818f59000b0032000400e800100498005f
:101350001800780009587800000c780011c0b3001c
:1013600080e9210001487800ea8f5400060032002d
:10137000190037008800780009407800190007003c
:101380008004780014003700380090000088a30023
:101390001100320018019000a80090004800900051
:1013a00087fc070098009000810f50000400320075
:1013b000380090000003b300300498008084eb00f4
:1013c0000000eb001004980028009000000c78004a
:1013d000010037008084eb00090078004f04be0054
:1013e000000006000200fa00889fbe00a0ff9f00d8
:1013f00001047800b1009000810478000904b20073
:10140000020032000000fb00360037000118a30084
:1014100005003a000103b300310498001904980054
:101420000080eb002f003700580090000000e00023
:1014300006003a004800900012002000e6805700a5
:101440005ffc070019049800240037002800900072
:101450000000e00008003a0040e921002004980064
:10146000000c780020002000500498001004980020
:101470000130a0003104980018019000a8009000ed
:10148000480090004efc070028009000000c7800f7
:101490000080eb001004980018007800aff8970067
:1014a00001587800000c78002ff89700ea4f5000a0
:1014b0000a003a00380090000088a30007003200bc
:1014c00018019000a8009000480090003cfc070024
:1014d00019049800a8009000010c7800aff897005c
:1014e0000100fb004f04be000080fa00000006006f
:1014f000881f7800000478005001be004000be0044
:1015000004004000858048000601490087814900a9
:10151000009cbe000294be000400e1000588e100ca
:101520000690e1000798e1000200310068004400e5
:101530001008e8004f04780000000600f487470018
:10154000889fbe008a9fbe008c9fbe008e1f7800c1
:101550000205be000004be00d4b79f00e5b79f009f
:10156000f6b79f0087bf9f000000eb00c0b79f0049
:10157000b0b79f00a0b79f0090b79f0080b79f00b3
:101580000d042000bfb097004fb09700000140004d
:101590000000e0000f003d004f08de000000710079
:1015a000c0b79f004d00070001003d001200200061
:1015b0005000070001003d00120020005500070008
:1015c00061000700660007000f004000c8ff070029
:1015d000220037004f08de0000067100ccb79f00e4
:1015e0003e00070001003d001200200041000700fe
:1015f00001003d00120020004600070052000700d5
:101600000fb297009fb297002fb39700bfb3970018
:10161000590007000000520081805a0002015b005f
:1016200083815b0080b79f0091b79f00a2b79f00a6
:10163000b3b79f000007eb004f0007000020e10058
:1016400001a8e10002b0e10003b8e10001003100af
:101650001e0020000e005600c0b79f004fb297003a
:101660000400e00007003500100020000100200009
:101670006011b80008047000898470000a057100c8
:101680008b8571008d06e900beff3a000400e00082
:1016900003003d00320007000f00400094ff0700e8
:1016a0004fa897000000e00004003a000fb4970034
:1016b0009fb497002fb59700bfb597000800be00f4
:1016c0000a01be004f0778004f06be004f05be005e
:1016d0004f04be004f01b100000006000180400031
:1016e00090b79f000001eb008fb097000100e00071
:1016f000000006000200700090b79f0001804000cb
:1017000080b79f000001eb00ffa897000100e000f8
:10171000000006000200700080b79f0001804000ba
:101720006faa9700cf20de0001007000f0af9f008d
:10173000040242000800be000a01be004f18de008d
:101740000002720000000600e4af9f00080444009d
:1017500089844c000a054d008b854d000000060071
:101760003fb29700cfb297005fb39700efb39700f7
:1017700000fe2f00000006003fb09700cfb097009a
:101780005fb19700efb1970000000600881f780056
:1017900018002000881f780068ff07008f87e90085
:1017a0004f04780000000600801feb0063ff070075
:1017b0008f87e90000000600889fbe008a9fbe0058
:1017c0008c1f78000205be000004be00e00f500030
:1017d000e08f5800e00f5900e08f59000c003d00e9
:1017e0006000b8006011b8000804500089845800f7
:1017f0000a0559008b8559001c0020001f000700b6
:1018000008003d00180007000006eb000500370047
:101810000006eb001900070002003d000f00070062
:101820001c0020000800be000a01be00d7ff070010
:101830000203be000002be000c00e0000100320006
:10184000060007000400be000601be004f06780037
:101850004f05be004f04be00000006006000b80047
:101860006011b80000003700040250008582580063
:10187000060359008783590000000600e00f52005c
:10188000e08f5a00e00f5b00e08f5b000000060075
:10189000889fbe008a9fbe008c1f78000205be0094
:1018a0000004be00e00f5000e08f5800e00f590028
:1018b000e08f59000a003d006000b8006011b800d8
:1018c00008045000898458000a0559008b85590086
:1018d0001c0020001800070007003d00050037002d
:1018e0000006eb001400070003003d006000b80094
:1018f0006011b800150007000800be000a01be0014
:10190000a9ff07000203be000002be000c00e000b9
:10191000030032006000b8006011b8000b0007003f
:101920000400be000601be004f0678004f05be0051
:101930004f04be0000000600e00f5200e08f5a0086
:10194000e00f5b00e08f5b00000006000402500027
:10195000858258000603590087835900000006005d
:020000040000fa
:020000040005f5
:0457f400ff7500003d
:020000040000fa
:020000040005f5
:0457f8008e1200000d
:020000040000fa
:020000040005f5
:0457fc00603f00000a
:020000040000fa
:10000800dc020000dc020000dc020000dc02000070
:10001800dc020000dc020000dc020000dc02000060
:10002800dc020000dc020000dc020000e029000025
:10003800dc020000dc020000dc020000dc02000040
:10004800dc020000dc020000dc020000dc02000030
:10005800dc020000dc020000dc020000dc02000020
:10006800dc020000dc020000dc020000dc02000010
:10007800dc020000dc020000dc020000dc02000000
:10008800dc020000dc020000dc020000dc020000f0
:10009800dc020000dc020000dc020000dc020000e0
:1000a800dc020000dc020000dc020000dc020000d0
:1000b800dc020000dc020000dc020000dc020000c0
:1000c800dc020000dc020000dc020000dc020000b0
:1000d800dc020000dc020000dc020000dc020000a0
:1000e800dc020000dc020000dc020000dc02000090
:1000f800dc020000dc020000dc020000dc02000080
:10010800dc020000dc020000dc020000dc0200006f
:10011800dc020000dc020000dc020000dc0200005f
:10012800dc020000dc020000dc020000dc0200004f
:10013800dc020000dc020000dc020000dc0200003f
:10014800dc020000dc020000dc020000dc0200002f
:10015800dc020000dc020000dc020000dc0200001f
:10016800dc020000dc020000dc020000dc0200000f
:10017800dc020000dc020000dc020000dc020000ff
:10018800dc020000dc020000dc020000dc020000ef
:10019800dc020000dc020000dc020000dc020000df
:1001a800dc020000dc020000dc020000dc020000cf
:1001b800dc020000dc020000dc020000dc020000bf
:1001c800dc020000dc020000dc020000dc020000af
:1001d800dc020000dc020000dc020000dc0200009f
:1001e800dc020000dc020000dc020000dc0200008f
:0801f800dc020000dc02000043
:020000040000fa
:10020800dc020000dc020000dc020000dc0200006e
:10021800dc020000dc020000dc020000dc0200005e
:10022800dc020000dc020000dc020000e029000023
:10023800dc020000dc020000dc020000dc0200003e
:10024800dc020000dc020000dc020000dc0200002e
:10025800dc020000dc020000dc020000dc0200001e
:10026800dc020000dc020000dc020000dc0200000e
:10027800dc020000dc020000dc020000dc020000fe
:10028800dc020000dc020000dc020000dc020000ee
:10029800dc020000dc020000dc020000dc020000de
:1002a800dc020000dc020000dc020000dc020000ce
:1002b800dc020000dc020000dc020000dc020000be
:1002c800dc020000dc020000dc020000dc020000ae
:1002d800dc020000dc020000dc020000dc0200009e
:1002e800dc020000dc020000dc020000dc0200008e
:1002f800dc020000dc020000dc020000dc0200007e
:10030800dc020000dc020000dc020000dc0200006d
:10031800dc020000dc020000dc020000dc0200005d
:10032800dc020000dc020000dc020000dc0200004d
:10033800dc020000dc020000dc020000dc0200003d
:10034800dc020000dc020000dc020000dc0200002d
:10035800dc020000dc020000dc020000dc0200001d
:10036800dc020000dc020000dc020000dc0200000d
:10037800dc020000dc020000dc020000dc020000fd
:10038800dc020000dc020000dc020000dc020000ed
:10039800dc020000dc020000dc020000dc020000dd
:1003a800dc020000dc020000dc020000dc020000cd
:1003b800dc020000dc020000dc020000dc020000bd
:1003c800dc020000dc020000dc020000dc020000ad
:1003d800dc020000dc020000dc020000dc0200009d
:1003e800dc020000dc020000dc020000dc0200008d
:0803f800dc020000dc02000041
:020000040000fa
:101960001111000022220000333300004444000023
:1019700055550000666600007777000088880000f3
:1019800099990000aaaa0000bbbb0000cccc0000c3
:10199000dddd0000eeee0000cecd0000acab0000bf
:1019a0002564000020720000656c0000210a000020
:1019b00000250000642000007072000065730000c4
:1019c00073650000642e00002e2e00002000000031
:1019d0006d610000696e000000000000636f000090
:1019e0006e740000726f00006c7300000000000055
:1019f0006c630000640000000a0d0000000000009d
:101a0000494400004c4500000000000006000000b2
:020000040000fa
:101a10001600fa0030079800410798005207980016
:101a20006307980074079800050f9800160f980038
:101a3000270f98009e0890005e009000f0030700ba
:101a4000100798001e0090000000e00057003200d0
:101a50001e009000c0089000010f78001e0090004a
:101a6000c00890005e009000000040000080400030
:101a70008080e9001e009000710898005e029000ce
:101a8000ae0990007e019000ce0090001e009000f4
:101a90007a0307006e019000be0090001e007800df
:101aa000b30d0700800078001e0090000108780048
:101ab0000e0890000000e000030032000e089000c5
:101ac0009e00900001087800260e0700d0e28000fa
:101ad0000000e800d0e28800d0ec80000000e000c8
:101ae00007003a001e009000d0ec8800d0e2800091
:101af000e10f50000c003a008a0307000a0037008b
:101b000010e380000000e00007003a00d0ec800005
:101b1000b00890007e009000808f500002003e00d0
:101b20009e009000d1ec88001e009000b00890004c
:101b3000f0e28000808f5000030036001e0090000d
:101b400030089000f0e2880060e380000000e800c8
:101b500060e388001e009000b008900000e3800061
:101b6000808f5000030036001e0090003008900067
:101b700000e388001e0090000081e8001e00900035
:101b8000300890006a00b90080007800e0c62100ab
:101b900000804000820078003f0e07001000200007
:101ba00020079800f90d0700020037000080eb00c5
:101bb000200798002e009000e10f50000b003a0023
:101bc00010e380000000e00008003200d0ec80004c
:101bd000b00890007e009000808f5000030031001c
:101be000362c020000000000000000002e009000d3
:101bf0000080fa00000006000a00fa003007980092
:101c0000410798000000eb00000f78008a010700f0
:101c10003e009000900078004e0090000080400050
:101c2000200798003e00900090007800e0e28000dd
:101c3000808f50000c0036003e009000900078002d
:101c40002e009000808f500012003600e1e28000ec
:101c50002e009000810f50000e0036001000200072
:101c6000000f78000b0037003e00900090007800d5
:101c70002e009000808f500004003e00e1e28000c2
:101c80002e009000810f500002003600100020004e
:101c9000000f78003e009000ae0090000108780030
:101ca0001e00e00005003200d0ec80000080e8005b
:101cb0004b0e07002e009000390307006401070057
:101cc000100798001e0090000000e00003003a009a
:101cd000362c020000000000000000000080fa0026
:101ce000000006000600fa00200798000000eb0044
:101cf000000f78002e0090000000e0000c00320081
:101d00004d010700e1e280002e00900000804000bd
:101d100010079800d0ec80000080e800300e07002b
:101d20001e0090001e03070049010700000f780005
:101d30001e00e00003003a00362c02000000000004
:101d4000000000000080fa00000006000c00fa000d
:101d500030079800410798000000eb00000f780062
:101d60004e009000e30f50000200360030002000cb
:101d7000400798007b0d0700d1ec80003e009000ea
:101d8000810f500002003a000000eb00300798007d
:101d90003e0090000000e00003003a00d0ec80001c
:101da0005007980002003700be00900051079800cd
:101db0005e009000200798002e0090008010900098
:101dc000110798009e0090004e009000808f5000f8
:101dd00043003200ce0090001e009000808f500023
:101de000060036003e0090000000e00008003200cf
:101df00010002000000f7800050037003e00900022
:101e00000000e00002003a0010002000000f7800ff
:101e10002e009000801090002e009000300890005e
:101e2000808f500003003a002e009000ce009000fa
:101e3000310898002e009000ce009000011098000c
:101e40004e009000e40010002e0090006100980009
:101e50002e009000500190001e0090006a00b90012
:101e600080007800e0c6210000804000800f510013
:101e700015003a002e0090000080e800d80d070001
:101e80002e009000b008900000e38000808f50008a
:101e9000030036002e0090003008900000e3880018
:101ea0002e0090000081e8002e0090003008900085
:101eb0006a00b90080007800e0c621000080400080
:101ec00082007800740d0700100020009e0f1000a3
:101ed00003003a00362c0200000000000000000061
:101ee0002a0d07000080fa00000006000600fa0034
:101ef000100798001b0d0700d1ec80001e00900019
:101f0000810f500002003a000000eb00100798001b
:101f10001e0090000000e00003003a00d0ec8000ba
:101f200020079800020037009e00900021079800cb
:101f30002e009000000f78001e80e800a80d07001a
:101f40001e007800200890000000e000030032002e
:101f50009e0078006c804000a10d07009e80e80084
:101f600080cb21004c0d0700080d07001e009000db
:101f70000000e0000f003a0010e380000000e000e5
:101f800004003200362c02000000000000000000b7
:101f900008003700c1e58000d0e28000808f50004b
:101fa00003003a000000eb00d0ec8800010037008d
:101fb0006a0107000080fa00000006000600fa002f
:101fc000200798000000eb00100798002e009000fa
:101fd000000f78001e007800d000900080cb210018
:101fe000808f50000b003a001e007800a00890007f
:101ff000e0ca2100808f5000060032001e007800e9
:10200000200890000000e00002003a0010002000cc
:10201000100798001e0090000080fa0000000600e3
:102020000400fa00100798001e009000000f7800ce
:102030001e00e00025003200d0ec80009e0f100052
:1020400022003200c70c07001e007800dbff0700eb
:10205000e10f50001c003a001e80e800600d0700f0
:102060001e007800b008900000e38000808f5000d0
:10207000030036001e0078003008900000e388005e
:102080001e81e8001e007800300890006a00b90048
:1020900080007800e0c621000080400082007800c7
:1020a000fd0c07001e007800b0089000d0ec800006
:1020b00030089000808f500003003900362c020059
:1020c0000000000000000000b00c07000080fa00d3
:1020d000000006000800fa00300798000000eb003e
:1020e000200798003e009000100798000000eb00c9
:1020f000000f78001e009000b0ff0700e10f5000b5
:1021000027003a0020e380000000e00020003a00b1
:102110001e00900030099000d0ec8000b0089000c4
:102120000000eb0020079800810f510002003900e9
:1021300010002000200798001e0090000080e8009a
:10214000270d07001e009000b008900000e38000fb
:10215000808f5000030036001e0090003008900071
:1021600000e388001e0090000081e8001e0090003f
:10217000300890006a00b90080007800e0c62100b5
:102180000080400082007800c30c07000400370084
:102190001e009000ec004000e0ca2100be0c0700c9
:1021a0002e0090000080fa00000006000200fa00f5
:1021b00001d028008003eb000003eb008002eb005d
:1021c0000002eb008001eb0032072000804221007a
:1021d0000ffe0700000f7800100020009e0f100077
:1021e00009003a0011028000000220000080700007
:1021f000100288001000200010e388000000eb00af
:10220000e0e28800250c07000080fa0000000600cc
:102210000000fa001102800000022000008070001f
:10222000100288000000eb0010e38800330c070068
:102230000080fa00000006000000fa0020e38000a1
:102240000000e80020e388000080fa00000006009b
:102250000600fa000000eb0010079800410c070090
:1022600020e380000000e90020e3880020e38000f4
:102270000000e00046003a00d0e280000000e000ec
:10228000430032000000eb00000f7800230037000d
:10229000a0e580003000900020079800ae0090007c
:1022a0006c804000ce0c0700ae0090000180e8007a
:1022b000cb0c07002e009000b008900000e38000d7
:1022c000808f500003003600ae009000310890006f
:1022d00000e388002e0090000081e800ae0090002e
:1022e000310890006a00b90080007800e0c6210043
:1022f0000080400082007800670c07002e009000ec
:10230000b0089000d0ec800030089000808f500022
:102310000200390010002000000f780070e58000f6
:102320000000e000daff3a0030e380000000e00047
:102330000a003200040037002d00070030e380005f
:102340000000e90030e3880030e380000000e00096
:10235000f9ff3a0010002000000f78001100200063
:102360009e8f10000300320040e38000e10f500018
:1023700007003a0010002000100798000000eb0052
:1023800040e38800362c020000000000000000003e
:10239000fe0b07001e0090000080fa0000000600ff
:1023a0000200fa00ef0b0700e0e28000000f780067
:1023b000f60b07001e0078000080fa0000000600ff
:1023c0000400fa000000eb00000f7800e0e280005b
:1023d000100798001e0090000080fa000000060020
:1023e0000000fa00d0e280000080fa000000060041
:1023f0000600fa0020e380000000e00052003a00ee
:10240000e0e280000000e800e0e28800e0e2800016
:102410000000e00017003a0050e580001007980027
:1024200060e5800050e588009e00900061e588002e
:1024300050e380000000e80050e3880050e5800091
:10244000100078000000e00003003a000080eb007c
:10245000e0ec88000700370050e580003000900075
:1024600030009000200798002e009000100090008f
:10247000e0ec8800e1e28000e0ec8000808f50001a
:102480003400390050e58000100078000000e000c2
:1024900003003a000080eb00e0ec88002d003700dc
:1024a00050e5800030009000300090002007980038
:1024b0002e00900090009000010f7800e0e2800074
:1024c0009e0f5000030031001e007800e0ec8800f1
:1024d000200037002e0090000080e800400c07002c
:1024e0002e009000200890000000e0000300320061
:1024f0002e0090006c004000390c07002e00900068
:10250000b008900000e38000808f50000300360088
:102510002e0090003008900000e388002e0090000c
:102520000081e8002e009000300890006a00b90099
:1025300080007800e0c62100008040008200780022
:10254000d50b0700cfff370030e380000000e80024
:1025500030e388000080fa00000006000200fa0064
:1025600020e380000000e0000600320010002000a0
:1025700040e388002400370000e380000000e90009
:1025800000e3880000e380006a00b9008000780062
:10259000e0c6210000804000100078000000e0004c
:1025a000f5ff320000e380006a00b9008000780087
:1025b000e0c62100008f40001e007800100090004f
:1025c000900090001e007800110098001e00780016
:1025d000900090001e01780064004100808f500040
:1025e00005003a001e007800100090009000900056
:1025f0001e007800110098001e0078001000900066
:1026000030009000d0ec88000080fa000000060046
:102610000600fa001007980021079800d0ec80000f
:10262000ec0040001e009000bd0b0700d0ec8000c5
:102630000080e800ea0b07002e009000e10f400048
:1026400005003a00d0ec80008080e80080cb2100bb
:10265000910b070005003700e1e280002e0090009a
:10266000008f40001e007800cd0007000080fa00b7
:10267000000006000600fa00200798002e009000d7
:102680003000900030009000100798001e0090006d
:102690006c004000d20b070020e380000000e00047
:1026a00016003a001e0090000080e800cc0b0700e6
:1026b0001e009000b008900000e38000808f500062
:1026c000030036001e0090003008900000e38800f0
:1026d0001e0090000081e8001e009000300890006d
:1026e0006a00b90080007800e0c621000080400048
:1026f00082007800680b0700040037001e0090007d
:10270000ec004000e0ca2100630b07001e009000af
:10271000b0089000d0ec800030089000808f50000e
:102720000300390010002000000f7800020037007d
:102730000000eb00000f78001e0078000080fa0017
:10274000000006000200fa00000f780051e380004c
:102750001e00780001087800e1e280001e00780089
:10276000110098000080fa00000006000600fa0040
:102770001007980021079800fa0a07002e00900021
:1027800010007800e10f400003003a000000eb0069
:10279000000f7800250037001e00900090007800a0
:1027a00050e38000808f5000080032001e0090002f
:1027b00090009000e0e28000808f500003003e0017
:1027c00010002000000f780018003700e1e28000c0
:1027d0001e00900010009000808050002e0090009d
:1027e00010007800808f50000e0031002e00900005
:1027f00010017800e1e280001e00900010009000bf
:1028000000805000800051002e00900001087800e8
:102810001e009000cbff07000000eb00000f7800c7
:102820000200370010002000000f7800d70a0700d0
:102830001e0078000080fa00000006000000fa0088
:102840001000200040e388000080fa00000006002d
:102850000200fa00000f78004e00070070e38000cd
:10286000e10f500003003600362c0200000000008b
:10287000000000003a0a0700f7ff37000a00fa00dc
:10288000000f78001107980022079800330798007e
:10289000440798009e0090001e0178007a004100d5
:1028a00042002000b2f707009e0078000040eb00d5
:1028b000d05898002e009000e30f50000200360020
:1028c00030002000200798001e007800ae00900025
:1028d000310898001e0078002e0190000210980028
:1028e0001e80e800e50a07009e0078006c8040002a
:1028f000e20a07001e0078001e01780042009800de
:102900002e009000e40010001e0078006100980086
:102910001e0078009e007800110898000080fa00e0
:10292000000006000200fa000000eb00000f780033
:10293000070037001e0078006a00b90080007800a8
:10294000e0c6210000804000b30a07001e0fe80027
:10295000300020009e0f1000f6ff360060c92100f5
:10296000ad0a070000ca2100ab0a0700e0ca210037
:10297000a90a070080cb2100a70a070060c921002f
:1029800050e5880000ca210060e588000080fa0058
:10299000000006000000fa000080fa0000000600b7
:1029a0000200fa00000f7800d0ec80009e00780052
:1029b00011009800e0e280009e0f10000500310039
:1029c000d0ec80008080e80060e58000d40a070039
:1029d00009003700d0ec80008080e80050e58000de
:1029e000cf0a0700e0ec80009e0f100002003100cb
:1029f0001e007800e0ec88000080fa00000006006d
:102a00000800fa0010079800210798002002200013
:102a100072080700000f78001e00e0001d00320061
:102a20002e0090000000e00005003a001e0090001b
:102a300000004000690807003007980002003700d6
:102a40002e009000300798001e007800be00900015
:102a5000410898001e007800400890000000e00047
:102a600005003a001e007800e10807000000eb00b6
:102a7000000f7800070037001e00900000004000a3
:102a8000000178001e00780040089000510a2000e4
:102a900030f707001e0078000080fa0000000600f2
:102aa0000200fa00d0ec8000000f78001e007800d1
:102ab0000080fa00000006000400fa0010079800e9
:102ac0001e009000000f78001e007800b0089000f3
:102ad000d0ec800030089000808f50002b00310037
:102ae000d0ec800030089000e40010001e00780058
:102af000610098001e007800500190001e007800d0
:102b0000300890006a00b90080007800e0c621001b
:102b100000804000800f510018003a001e80e8003d
:102b2000af0a0700d0ec8000b00890001e007800cb
:102b3000310898001e007800b008900000e3800083
:102b4000808f5000030036001e007800300890008f
:102b500000e388001e81e8001e0078003008900025
:102b60006a00b90080007800e0c6210000804000c3
:102b700082007800480a070004003700d0ec80008b
:102b8000b00890001e007800310898000080fa001c
:102b9000000006000400fa00100798001e009000d4
:102ba000000f78001e0090000000e00022003200bc
:102bb0001e007800b00890001e0078000010900001
:102bc000808f50001c0032001e80e800840a07003d
:102bd0001e007800801090001e00780031089800d8
:102be0001e00780030089000e40010001e007800fd
:102bf000610098001e007800b008900000e380009b
:102c0000808f5000030036001e00780030089000ce
:102c100000e388001e81e8001e0078003008900064
:102c20006a00b90080007800e0c621000080400002
:102c300082007800180a07000080fa0000000600f1
:102c40000c00fa003007980041079800224f9800c6
:102c50000000eb00000f78003e0090000000e00054
:102c60004300320060022000dc07070020079800c4
:102c70002e0090000000e0003d003200be009000f9
:102c80004e0090000088b9000000e800100798008e
:102c90001e009000d1070700800078002e009000f1
:102ca000010878002e009000100078000000e0007d
:102cb0002d0032002e00900010017800be00900020
:102cc0004e0090000088b900800041002e00900066
:102cd00011009800ae0090000000eb00e0089800a2
:102ce0002e009000900078002e00900021009800a7
:102cf0002e009000100178003e0090008000e90056
:102d00004e0090000088b900800041002e00900025
:102d1000310098002e009000be00900071089800cd
:102d20002e009000ce00900001109800ae009000a0
:102d30000080eb0090109800ae0090000080eb0047
:102d4000a01098002e00900068004000b209070013
:102d50002e00900072004000af0907002e00900086
:102d6000000f7800020037002e00900020080700b6
:102d70001e0078000080fa00000006000400fa003f
:102d8000204798006002200094070700000f780099
:102d90001e00e000260032009e0078000000eb00dc
:102da000900098009e0078000000eb0080087800fa
:102db0009e0078000000eb00a00098009e007800c4
:102dc0000000eb00b00098009e0078000000eb00cf
:102dd000e00898009e00780010002000f00898009d
:102de0009e0078000000eb00801098009e007800a4
:102df0000080eb00901098009e0078000080eb00af
:102e0000a01098009e0078006880400082090700aa
:102e10009e007800728040007f0907008001eb006f
:102e20000001eb008000eb001e00780003000700ab
:102e30001e0078000080fa00000006001000fa0072
:102e400030079800410798005207980063079800e0
:102e50000000eb00000f7800000037004109070078
:102e60003e009000e00890003e0090007008900046
:102e7000808f5000140031006e019000ce00900051
:102e80003e009000590107003e009000100890009d
:102e90000000e000080032003e0090007200400098
:102ea000f4fd0700e10f500003003a00362c020049
:102eb000000000000000000034090700100020009e
:102ec000700798003e0037005e0090000000e000b0
:102ed00004003a002d0907000000eb00700798007d
:102ee000370037001e00e00004003a000e80e800c2
:102ef00014fe070010002000000f780023090700cf
:102f0000cdfc0700170907003e009000101090004c
:102f1000e10f400003003a00be0090000000eb000b
:102f2000901098003e00900020109000e10f4000ab
:102f300003003a00be0090000000eb00a0109800d3
:102f400012090700ea0047000e80e80007fe0700ac
:102f50000000e00015003a003e009000e401070088
:102f60000000e0000d003200de0090003e00900006
:102f700068004000a6fd07003e0090008a0107009f
:102f8000b3fc07000000e000b4ff3a00362c02005a
:102f90000000000000000000b0ff37003e0090007d
:102fa00081010700aafc0700acff37003e0090003b
:102fb0007d010700a6fc07000000eb0070079800e9
:102fc0007e0090000080fa00000006000c00fa006d
:102fd000200798003107980042079800530798008f
:102fe0000000eb00000f78002e009000e008900039
:102ff0002e00900070089000808f50001d0031005e
:103000005e019000be0090002e009000f7000700c7
:103010002e00900020109000e10f40000d003a00bb
:103020002e009000100890000000e0000e0032001a
:103030002e009000720040008efd07000000e000ae
:1030400009003200ce0090001000200080087800b7
:10305000050037002e009000201090008000e8004e
:103060002e009000211098001000200010079800fa
:10307000020037000000eb00100798001e009000cf
:103080000080fa00000006001200fa0040079800d5
:103090005107980062079800730798000000eb0042
:1030a0001007980000003700ae0807004e0090009f
:1030b000600890000000e000360032004e009000f2
:1030c000b0009000010f7800de0090004e009000ec
:1030d000150107007e0090000000e0001a003a0091
:1030e0004e009000600890008000e9004e009000c3
:1030f000610898004e009000100078000000e00089
:1031000004003a0066fe0700800078004e00900040
:10311000110098004e009000400090000000e00078
:10312000180032004e0090006800400051fd07007a
:10313000e10f500013003a00362c0200000000009e
:10314000000000000f0037004e0090009e00780045
:10315000310098004e009000100890000000e00040
:10316000080032004e0090007200400041fd070050
:103170000000e00003003200362c020000000000d6
:10318000000000008108070010002000000f9800d8
:10319000480037006e0090000000e00004003a0094
:1031a0007a0807008000eb00010f9800410037000b
:1031b0001e0090000000e00004003a006400470098
:1031c00060fd070010002000100798006f0807003e
:1031d00019fc0700630807004e00900010109000d3
:1031e000e10f400003003a00ce0090000000eb0029
:1031f000901098004e00900020109000e10f4000c9
:1032000003003a00ce0090000000eb00a0109800f0
:103210005e080700ec0047006400470053fd07000c
:103220000000e0001e003a004e009000140107006c
:103230000000e000160032004e0090001000780000
:103240000000e00005003a00460807004e0090002c
:103250001000900018fe07004c080700ee009000d8
:103260004e00900072004000e9fc07004e00900004
:10327000cd000700f6fb07000000e0008aff3a00df
:10328000362c0200000000000000000086ff37001e
:103290004e009000c4000700edfb070082ff3700de
:1032a0004e009000c0000700e9fb07000000eb00a3
:1032b000000f98000e0890000080fa000000060041
:1032c0000a00fa002007980031079800420798008a
:1032d0000000eb00000f78002e00900060089000c6
:1032e0000000e00021003200be0090002e0090009f
:1032f0008d0007002e009000600890008000e9001b
:103300002e009000610898002e0090001010900090
:10331000e10f40000d003a002e00900040009000a8
:103320000000e0000e0032002e0090006800400017
:10333000d0fc07000000e00009003200ce00900041
:103340001000200080087800050037002e00900053
:10335000101090008000e8002e00900011109800de
:103360001000200010079800020037000000eb005a
:10337000100798001e0090000080fa000000060070
:103380000400fa0010079800f60707001e009000de
:10339000e0089000010f7800fc0707001e0078008d
:1033a0000080fa00000006000400fa0010079800f0
:1033b0001e009000e0089000010f78001e007800c9
:1033c0000080fa00000006000200fa00000f7800fa
:1033d0001e00780010007800850607001e007800a7
:1033e000830607000080fa00000006000600fa00cd
:1033f000000f780011079800220798001e0078003f
:10340000001090000000e0000b003a001e00780061
:10341000100078000000e0003c003a001e00780038
:1034200010009000dbfd07009e0078000000eb001c
:1034300090009800350037002e0090000000e0005a
:1034400018003a001e007800001190001e0078005d
:10345000200090009e009000a3f407001e0078005a
:10346000a00090001e0078000010900080804000b6
:103470001e007800210098001e007800a000900037
:103480001e00780010009000808f50001f0039004f
:103490001e007800900078001e007800210098003f
:1034a0001a0037001e007800001190001e007800fe
:1034b000300090009e0090008bf407001e00780002
:1034c000b00090001e007800001090008080500036
:1034d0001e007800310098001e007800b0009000b7
:1034e0001e00780010007800808f50000700310027
:1034f0001e007800900090001e00780000109000e0
:10350000808050001e007800310098001e00780076
:10351000600890008000e8001e00780061089800b4
:103520000080fa00000006000400fa00000f780096
:10353000110798001e007800100078000000e000dd
:10354000170032001e007800b00090001e007800c6
:1035500000109000808040001e007800310098002c
:103560001e007800b00090001e007800100090004f
:10357000808f5000040039001e0078009000780011
:103580001e007800310098001e00780000119000a5
:103590001e007800b00090001e00900052f407005a
:1035a0000080fa00000006000200fa00000f780018
:1035b0006c0707000f0037001e007800100890000d
:1035c0000000e0000f0032009e0078007280400092
:1035d00028fc07000000e0000100320097fc070013
:1035e0001e007800201090008000e9001e00780086
:1035f000211098001e007800201090000000e000cc
:10360000edff3c009e0078000080eb00a0109800c9
:103610005e070700530707000f0037001e00780001
:10362000400090000000e0000f0032009e00780093
:10363000688040000ffc07000000e000010032003d
:103640007efc07001e007800101090008000e9004a
:103650001e007800111098001e00780010109000d5
:103660000000e000edff3c009e0078000080eb00d1
:1036700090109800450707000080fa00000006003f
:103680000400fa0010079800360707001e0090009b
:10369000e00890000000eb00000f78000100e0005f
:1036a00002003a0010002000000f780037070700e2
:1036b0001e0078000080fa00000006000400fa00f6
:1036c000100798001e009000e00890000000eb003a
:1036d000000f78000100e00002003a001000200016
:1036e000000f78001e0078000080fa00000006003d
:1036f0000400fa00100798001a0707001e00900047
:10370000600990001e009000f00890000000eb009f
:10371000000f7800810f510002003a0010002000d5
:10372000000f7800190707001e0078000080fa00db
:10373000000006000400fa00100798001e00900028
:10374000600990001e009000f00890000000eb005f
:10375000000f7800810f510002003a001000200095
:10376000000f78001e0078000080fa0000000600bc
:103770000200fa00004f78002117800000f82f00a7
:1037800000806000201788001e00fb00ef00600032
:1037900020178000008070002017880000000000c3
:1037a000e4c2a80000000000e4c2a9000080fa0002
:1037b000000006000600fa0010079800211780009c
:1037c00000f82f0000806000201788001e00900085
:1037d0000000e000030032000003200020079800f2
:1037e0000200370001022000210798002017800006
:1037f000ae00900000807000201788000017800045
:10380000f000b30000178800e4c2a8000000000028
:10381000101780006f0060004400dd00004f78004a
:10382000e4c2a90000000000000000000000000049
:10383000e4c2a80010178000ef4060001e4078002e
:1038400000c07000004f7800e4c2a9000000000032
:10385000000000000117800000ff2f0000806000c2
:10386000001788001e00fb000080fa000000060020
:103870000000fa000000eb00ceff07000004e000ab
:10388000fcff35000080fa00000006000600fa0088
:10389000000f780021479800f5ff070020178000ef
:1038a00001f82f0001006000201788001e00e000d2
:1038b00003003200000120002007980002003700ba
:1038c0008000eb00210798002e4090000000fb00d4
:1038d0004480de000000fb006f006000ae0090003e
:1038e0000080700080007800201780000080700049
:1038f0002017880000000000e4c2a80000000000bb
:10390000e4c2a9002117800000ff2f0000806000a2
:10391000201788002e4090000000fb00ef006000a0
:103920002017800000807000201788000000000031
:103930000000000000000000e4c2a8000000000039
:10394000e4c2a9000080fa00000006000400fa00aa
:10395000000f7800110798009e00780061806000d9
:103960000004e000030032001e0090000004b000dc
:10397000100798001e0078000000d1006100600070
:103980000004e000030032001e00900074004000bc
:10399000100798001e0090000080fa00000006004a
:1039a0000e00fa00300798003e0090005007980083
:1039b0005e0090000000e00002003d000000eb000f
:1039c000500798005e009000200798003e0090008d
:1039d000600798006e0090000000e00002003400d4
:1039e0000000eb00600798006e0090001007980040
:1039f0003e0090000000e000040034003e00900013
:103a00006400100040079800030037003e0090005b
:103a100064004000400798004e009000000f7800be
:103a20001e0078007400b900000178002e0090009c
:103a30007400b9008000780060cd21000080400053
:103a4000800178001e0090007400b90080007800aa
:103a500060cd2100008040008300780029f307003a
:103a60001e0090007400b9000001780001022000df
:103a700060cd210037f307001e0090000000ea002f
:103a80001e0050007400b9000005b000000178006d
:103a90001e0090001e0040007400b90080007800f5
:103aa00060cd2100008040000102200029f30700c2
:103ab00091e680003e0090000080500090e6880073
:103ac0000080fa00000006000000fa0090e6800086
:103ad000e30f5000030034003000200090e688001f
:103ae0000500370090e680000000e00002003d0085
:103af0000000eb0090e68800a0e68000f30f500085
:103b00000200340030012000a0e68800a1e6800019
:103b100090e680008dff07008040780000c8b30069
:103b200080c040000000eb0058ff07000080fa0052
:103b3000000006000600fa0030e980002007980027
:103b400061c0b3000000eb0050ff070021c0b300cc
:103b50000000eb004dff07000000eb00100798008d
:103b60001d0037008000eb001e00900077ff07006b
:103b70008040780000c8b30080c040000000eb0027
:103b800042ff07000000eb00000f78000c00370038
:103b90001e0090001e0178007400b90082004000f1
:103ba00060cd210000804000104078008040780007
:103bb0000174a1001000200034ff07001e0fe80070
:103bc000300120009e0f1000f1ff34001e00900015
:103bd0000000e800100798001e009000e30f50005e
:103be000e0ff3400b8ff07002e0090006340600043
:103bf000c040b300804078000000eb0023ff0700c6
:103c00000080fa00000006000a00fa002007980071
:103c100031079800420798000000eb001007980059
:103c20000000eb00000f78002f00370092e68000c4
:103c3000a3e680001e007800800078004e0090000f
:103c400000804000104278007410b90083004000ea
:103c500060cd210000804000044878001e009000e4
:103c60000000e00009003a001e00780080007800a3
:103c70004e009000008040001040780080407800a6
:103c80000174a1001000200000ff0700a0e68000e2
:103c90000000e800a0e68800a0e68000f30f5000d6
:103ca000100034000000eb00a0e6880090e68000e1
:103cb0000000e80090e6880090e68000e30f5000e6
:103cc000040034001000200035ff07001000200021
:103cd000100798001e0090000000e00001003a006c
:103ce00079ff07001e0fe8003e0090009e0f1000b5
:103cf000ceff35001e0090000000e0000100320001
:103d00008cff07000080fa00000006000800fa009f
:103d1000000f780011079800220798002e009000ed
:103d2000300798003e009000e10f50000f00320075
:103d30003e009000e10f5000070039003e00900067
:103d4000e20f50000f0032003e009000e30f5000e1
:103d500013003200190037001e009000a0e6880012
:103d60001e00780090e68800140037001e009000c6
:103d7000a0e6880090e680001e00400090e68800e3
:103d80000e003700a0e680009e0090000100400079
:103d9000a0e688001e00780090e688000700370043
:103da000a1e680001e00900000804000a0e6880090
:103db00090e680001e00400090e68800a0e68000ab
:103dc000f30f50000200340030012000a0e688000c
:103dd00090e68000e30f50000500340090e680007c
:103de00063005000eefe070052ff07000800370096
:103df00090e680000000e00004003d0090e68000b6
:103e0000e7fe07004bff0700010037002eff070009
:103e10000080fa00000006000400fa00000f78009d
:103e200040012000aff7070030c0b30050fe07008c
:103e300050002000abf7070030c0b3004cfe070075
:103e400010002000a7f7070030c0b30048fe0700ad
:103e500087fe070020c0b30045fe070081c2b30003
:103e60000000eb0089fe070081c0b3000000eb00fa
:103e700086fe070011c0b3000000eb0083fe0700c0
:103e800061c0b3000000eb0080fe0700c1c0b300ba
:103e90000000eb007dfe070002052000010220006b
:103ea00060cd21002bf207000000370040e98000c0
:103eb0008001eb000081eb0021cc210072fc0700a7
:103ec00010e68000100798001e009000e20f5000de
:103ed000260032001e009000e20f500007003e0056
:103ee0001e0090000000e0000b0032001e00900059
:103ef000e10f500014003200ecff37001e0090006c
:103f0000e30f50001f0032001e009000e40f50002d
:103f100020003200e5ff370011c0b3000000eb00c5
:103f20005afe07000000eb0090e688000000eb005e
:103f3000a0e68800020520000102200060cd2100db
:103f400004f20700d9ff370020e6800030e988003e
:103f500020e680006340600080407800c140b300ec
:103f60000000eb0049fe0700d0ff370040e680006c
:103f70000001780031e6800020e6800063ff070042
:103f8000caff370020e6800085fe0700e9fe070033
:103f9000c6ff370031e6800020e6800082cc210099
:103fa00019ff0700c1ff37000000fa000041eb00d5
:103fb000010120004000200021fb070040e98800ab
:103fc00081cf28008003eb000003eb008002eb00b0
:103fd000140020008001eb0032072000c0f0210017
:103fe0008bf607000080fa00000006001200fa00bd
:103ff000000f980030002000000f78000e0890009d
:104000001007980040e980008001eb000081eb0080
:104010008e00780089fb07000080fa00000006008f
:104020001600fa00000f9800110f9800220f980058
:1040300020002000000f78000e0890001007980064
:104040001e089000200798002e0890003007980066
:1040500040e980008001eb000081eb008e007800d9
:1040600076fb07000080fa00000006001200fa004c
:10407000000f980010002000000f78000e0890003c
:104080001007980040e980008001eb000081eb0000
:104090008e00780069fb07000080fa00000006002f
:1040a0001000fa000000eb00000f780040e98000eb
:1040b0008001eb000081eb008e0078005ffb0700c1
:1040c0000080fa00000006001800fa00100f9800a7
:1040d000210f9800320f9800220037008e80e800f0
:1040e00040002000800878002e089000000f780023
:1040f000a10020009e8f100002003400a0002000cc
:10410000000f78000e80e8009e08900011009800d3
:104110000e80e8009e007800210098001e017800c3
:104120000e80e80066004000be0890006ef10700b7
:1041300040e980008e80e8008001eb000081eb0008
:104140003efb07001e007800800078003e089000cb
:1041500001004000300f98002e0890001e00500013
:10416000200f98002e0890000000e000dbff3c00cc
:104170000080fa00000006000e00fa0020079800f8
:104180003107980042079800530798000000eb00a1
:1041900010079800190037000000eb00000f7800ae
:1041a000100037001e009000800078002e00900064
:1041b00000804000104178001e00780080007800e8
:1041c0004e0090000080400010407800804f510069
:1041d00003003a001e009000600798000d003700b1
:1041e0001e0fe8005e0090009e0f1000edff3500ee
:1041f0001e0090000000e800100798009e0090004c
:104200003e009000808f5000e3ff35003e0090009c
:10421000600798006e0090000080fa000000060021
:104220000a00fa002007980031079800420798001a
:10423000c001200069020700000f78001e00e000a6
:104240003a003200f0ec80000000e00003003a0089
:104250001e007800f0ec8800030107003e0090008b
:10426000e10f5000020036001000200030079800d7
:104270009e0078000000eb00d00898001e00780037
:10428000be009000310898001e007800ce0090001b
:10429000410898001e007800ae00900001087800e8
:1042a0001e80e800750407009e0078006c804000c6
:1042b000720407001e0078009e00780041009800fc
:1042c0001e0078009e007800110898003e009000c3
:1042d000e40010001e007800610098001e007800c5
:1042e000b008900050e98000808f50000300360035
:1042f0001e0078003008900050e988001e81e80018
:104300001e007800300890006a00b9008000780034
:1043100020d3210000804000820078005e04070066
:104320001000200010079800020037000080eb000a
:10433000100798001e0090000080fa0000000600a0
:104340000600fa00100798002107980061e9800034
:104350001e009000008f4000f0ec80000080e8001c
:104360009f040700f0ec80009e0078001100980088
:1043700060e980009e0f100005003100f0ec800025
:104380008080e800e0ea8000650407000400370050
:10439000f0ec80008080e800d0ea80006004070034
:1043a0002e0090000000e00004003200f0ec8000dd
:1043b000ec0040002e009000590407000080fa0035
:1043c000000006000200fa00210037001102800000
:1043d00000022000008070001002880020eb8000a6
:1043e00030009000000f78009e0078006c80400044
:1043f0007b04070011028000f0fd2f0000806000a8
:10440000100288001e80e800750407001e00780076
:10441000b008900050e98000808f50000300360003
:104420001e0078003008900050e988001e81e800e6
:104430001e007800300890006a00b9008000780003
:1044400020d3210000804000820078001204070081
:10445000f0ea80000000e000dcff3a000080fa0093
:10446000000006000400fa00cdf7070071e98000a3
:104470000100500080e988004100370060e98000b9
:104480000000e80060e9880080e980000000e900a1
:1044900080e9880060e980000000e00034003a0014
:1044a000d0ea8000000f7800e0ea8000d0ea8800bf
:1044b0001e007800e0ea88002d003700d0ea800076
:1044c0003000900030009000100798001e0090000f
:1044d0009000900060e98000808f500028003e002e
:1044e000110280000002200000807000100288008d
:1044f0001e0090000080e800390407001e009000b4
:10450000200890000000e000030032001e00900030
:104510006c0040003204070011028000f0fd2f0003
:1045200000806000100288001e009000b00890001b
:1045300050e98000808f5000030036001e0090007c
:104540003008900050e988001e0090000081e800cb
:104550001e009000300890006a00b90080007800ca
:1045600020d321000080400082007800ca030700a9
:10457000d0ea8000100078000000e000cfff3a0091
:1045800080e980000000e000bcff3a0060e98000a4
:1045900070e988000080fa00000006000200fa00be
:1045a00088ff0700afff07000600370050e98000d2
:1045b0000000e0002a00320050e980000000e9001d
:1045c00050e9880050e980006a00b9008000780056
:1045d00020d3210000804000100078000000e0009f
:1045e000f2ff320050e980006a00b90080007800d4
:1045f00020d32100008f40001e00780010009000a2
:10460000900090001e007800110098001e007800b5
:10461000900090001e01780064004100808f5000df
:1046200005003a001e0078001000900090009000f5
:104630001e007800110098001e0078001000900005
:1046400030009000f0ec8800f0ec80001001780061
:10465000f0ec8000c0089000f0ec80000200010047
:104660000080fa00000006000200fa000000eb00e3
:10467000000f7800070037001e0078006a00b900bc
:104680008000780020d321000080400062030700f2
:104690001e0fe800100020009e0f1000f6ff3600ed
:1046a00060d421005c03070000d521005a030700f5
:1046b000e0d521005803070060d42100d0ea88002b
:1046c00000d52100e0ea88000080fa000000060022
:1046d0000600fa00200798002e009000300090009d
:1046e00030009000100798001e0090006c00400001
:1046f000bb0307001e009000ec004000e0d5210045
:10470000650307001e009000b0089000f0ec8000e8
:1047100030089000808f5000030039001000200006
:10472000000f7800020037000000eb00000f780057
:104730001e0078000080fa00000006000200fa0067
:104740000000eb00000f78000200370000000000be
:104750001e0fe800900020009e0f1000fbff3400a9
:104760000080fa00000006001000fa0070079800b0
:104770000bf707001007980050ec80008001eb0059
:104780000081eb008000eb003ffa0700e11680009b
:10479000e003200000807000e0168800c016800052
:1047a000e001b300c0168800e1168000000420007c
:1047b00000807000e0168800e0ff0700dac2bf004a
:1047c0000080fb004400de00614060008080fb0050
:1047d0006400470001087800dac2bf000080fb00d7
:1047e0004300de00614060008080fb006400470001
:1047f00011009800dac2bf000080fb004200de001a
:10480000614060008080fb00640047002100980048
:10481000dac2bf000080fb000000d10061406000f0
:104820008080fb006400470031009800e1168000a2
:10483000f0fb2f0000806000e0168800e116800089
:104840000008200000807000e0168800bbff070011
:10485000dac2bf000080fb004400de00614060005f
:104860008080fb006400470041009800e116800052
:10487000f0f72f0000806000e0168800c11680006d
:1048800010fe2f0000806000c016880060ec8000e1
:104890006f006000000040008080ea00e0168000a9
:1048a00000806000e0168800e1168000f0fd2f0017
:1048b00000806000e01688000000eb00000f780028
:1048c0001a0037001e00780080004000e0d8210068
:1048d0000080400010007800610160001e00780038
:1048e000e40047000000400060807800800f510025
:1048f0000d003200a0002000c0ec88001e017800ee
:104900001e00780080004000e0d8210000804000b8
:1049100010007800e301680082004100e0d8210027
:1049200000804000030878001e0fe80040002000cf
:104930009e0f1000e3ff3400c0ec80000000e00098
:1049400019003a0040ec80000000e0000300320053
:1049500041ec8000e0d82100010001000000eb00e4
:10496000000f78000a0037001e0178001e00780052
:10497000e400470000004000e08178008200410030
:10498000e0d8210000804000030878001e0fe800f6
:10499000400020009e0f1000f3ff34000080eb0069
:1049a000c0ec880006003700c0ec80000000e0008a
:1049b00003003400c0ec80000000e900c0ec880077
:1049c00050ec80008001eb000001eb008000eb0068
:1049d0001af907000e80e8002100200086f4070085
:1049e00065ff37000000fa0010c0b300e3f80700cd
:1049f00050ec8800e1ce28008003eb000003eb00c0
:104a00008002eb00340020008001eb003207200020
:104a1000403b2200fef307000080fa000000060081
:104a20000600fa001007980050ec80008001eb00af
:104a30000081eb008000eb0093f907000000eb0021
:104a4000000f78002a0037001e00780000004000a8
:104a5000800078001e009000008040001000780068
:104a6000200798002e009000e20f50001000320046
:104a70002e009000e30f5000150032002e00900031
:104a8000e10f500001003200180037001100200033
:104a90001e0078000008dd000080ea008000780039
:104aa00060ec80000080600060ec88000f00370040
:104ab000110020001e0078000008dd008000780052
:104ac00060ec80000080700060ec88000700370018
:104ad000110020001e0078000008dd008000780032
:104ae00060ec80000080680060ec88001e0fe80029
:104af000300020009e0f1000d3ff340050ec8000e7
:104b00008001eb000001eb008000eb00cbf8070018
:104b10000080fa00000006000200fa00000f780092
:104b200050ec80008001eb000081eb008000eb0086
:104b300055f907001e00780040ec880050ec80001a
:104b40008001eb000001eb008000eb00bbf80700e8
:104b50000080fa00000006000400fa001007980028
:104b600050ec80008001eb000081eb008000eb0046
:104b700045f907000000eb00000f78000d0037003a
:104b80001e00780000004000800078001e009000a9
:104b9000008140001e00780080004000e0d8210025
:104ba000008040001000780061006000000978007b
:104bb0001e0fe800400020009e0f1000f0ff3400a0
:104bc00050ec80008001eb000001eb008000eb0066
:104bd0009af807000080fa00000006001000fa00b2
:104be000700798000000eb003007980092f507006e
:104bf000804280000000e00012003a002085200082
:104c000090e288000000eb00a0e288000040210054
:104c1000c0e288000000eb00b0e2880020852000a0
:104c200020079800ae0090000040210090009800fe
:104c3000ae00900060c521008008780010002000c0
:104c4000804288007e0090000000e0000d003200ed
:104c5000316884007e0090000100400070079800d9
:104c60007e009000610060000004e000050032005a
:104c7000fe009000e0ff2f00008060000080e80050
:104c8000700798007e0090000000e00054003200a1
:104c9000fe009000f03f2100808f500050003e0049
:104ca00020c521005007980090e28000600798001e
:104cb00005003700ee009000510798006e0090004c
:104cc00090007800610798006e00900090009000be
:104cd0007e009000808f5000040031006e00900034
:104ce000100078000000e000f2ff3a00ee009000b3
:104cf00060c52100808f5000390032005e009000b6
:104d00001000780080007800306884000080400047
:104d1000300798006e009000900078005e009000d0
:104d2000010878006e009000900090007e009000d6
:104d3000808050003068840000004000808f500068
:104d400022003600ee0090007e00900000804000bf
:104d5000400798006e009000900090007e00900048
:104d6000808050004e009000110098006e0090006e
:104d7000fe009000110098004e00900090009000fe
:104d8000010f780020c521001007980003003700ac
:104d90001e00900090007800110798001e009000ff
:104da00010007800100090009e0f5000f8ff3900ae
:104db0001e009000900078004e00900001087800de
:104dc0001e009000ce0090000108780001ed8000e8
:104dd0006e009000100090000080500000ed8800f0
:104de0001bf507003e0090000080fa00000006005e
:104df0000a00fa00400798004e0090003007980023
:104e00004e0090000000e000230032003068840073
:104e1000800078003e0090000100500030079800ac
:104e2000be0090002107980003f507002e009000b7
:104e300090009000010f780020c521001007980015
:104e4000030037001e0090009000780011079800c2
:104e50001e00900010007800100090009e0f50007f
:104e6000f8ff39001e009000900078002e0090009e
:104e7000010878001e009000ae0090000108780044
:104e80002e0090009000900000ed80000080400017
:104e900000ed8800eef407000080fa000000060034
:104ea0000000fa0000ed80000080fa00000006001b
:104eb0000000fa000080fa00000006000200fa007c
:104ec000000f7800e0eb80008001eb000081eb0038
:104ed0008000eb006cf807001e007800800078006e
:104ee000e0d721001101be000288be00640040002e
:104ef000e48040001101be000288be006400400052
:104f0000e480400011087800d0eb80008001eb00c5
:104f10000001eb008000eb00c8f70700e0eb800029
:104f20008001eb000001eb008000eb00c3f70700fd
:104f30000080fa00000006000400fa001007980044
:104f40000000eb00000f7800070037001e0078001b
:104f500021d7210000004000810040001000200007
:104f6000800878001e0fe800300020009e0f10001f
:104f7000f6ff340020d72100a9fe070030002000f2
:104f80003afc0700d0eb80008001eb000081eb00d1
:104f90008000eb003cf80700e0eb80008001eb00b4
:104fa0000081eb008000eb0037f80700e1d721001b
:104fb00080d621001101be000288be0064004000be
:104fc000e48040001101be000288be006400400081
:104fd000e480400011087800e0eb80008001eb00e5
:104fe0000001eb008000eb0094f707006000b800c0
:104ff00090eb8800a1eb88006000b800b0eb88005f
:10500000c1eb88000000eb00000f7800260037009d
:105010001e0078008000400080d621000080400003
:1050200010007800e20f500011003a001e007800d6
:1050300042002000110009000200d8008000fd009d
:1050400021d72100000040008100400030002000f6
:10505000800878009e017800831f780000cd28002a
:10506000801f7800d9ed0700e48757000d00370056
:105070001e0078008000400080d6210000804000a3
:1050800010007800e30f500006003a001e00780080
:10509000801f780090cd2800801f7800cbed07009e
:1050a000e48757001e0fe800420020009e0f110009
:1050b000d7ff340020d7210059fe0700b1ff370089
:1050c0000000fa000041eb008000eb00100020001f
:1050d000dbf60700d0eb880010c0b30027f707000d
:1050e000e0eb8800e07522008bfe070081ce2800ef
:1050f0008003eb000003eb008002eb0014002000b3
:105100008001eb00720d2000c079220040f2070000
:105110000080fa00000006000000fa00f122a90059
:10512000f522a8000000eb00c0168800e003200074
:10513000e01688000000eb00201788000000eb005c
:105140000017880027fe070097fb0700dcff070019
:1051500016f407000000eb000080fa0000000600d3
:105160000000fa000dfd07000080fa0000000600b4
:105170000a00fa00200798003107980042079800bb
:105180003e009000100798002e0090009e009000b6
:10519000010878002e0090000080e80020079800a9
:1051a000ae0090000000eb00800878002e00900018
:1051b0000080e80020079800ae0090000000eb009f
:1051c000800878002e0090000080e80020079800fa
:1051d0004e009000800078002e00900001087800ba
:1051e0002e0090000080e800200798000000eb00ef
:1051f000000f78000b0037001e0078008000400090
:1052000000cb280000804000900078002e00900025
:10521000010878002e0090000080e8002007980028
:105220001e0fe8001e007800ef0f5000f2ff36005e
:10523000210280002e009000010878002e009000ce
:105240000080e80020079800910180002e00900067
:10525000010878002e0090000080e80020079800e8
:10526000a10180002e009000010878002e0090001f
:105270000080e80020079800ae0090000000eb00de
:10528000800878002e0090000080e8002007980039
:105290002e0090000080fa00000006000000fa00d6
:1052a00019000700d0ec8000900778004f007800cc
:1052b00010ed88003400f9003200f9004400f900d4
:1052c0005400f9003600f9004f0778004f06be0081
:1052d0004f05be004f04be004f03be004f02be008c
:1052e0004f01be004f00be004200f9000000060062
:1052f000100020000080fa00000006000000fa0004
:105300000080fa00000006000400fa00301f2000b0
:1053100001002000008fbe000000eb002008880084
:105320000000eb00000888001e00780010088800cc
:10533000510a200091407800f0c8b30000c060001e
:105340000044a000a5e0b7008460a9009460a80014
:105350000481a80004a1a90005e1a8000080fa00ca
:10536000000006000000fa00110280000002200088
:10537000008070001002880010ed80000000e8003e
:1053800010ed88000080fa00000006000000fa001e
:1053900010ed80000000e90010ed880010ed8000a5
:1053a0000000e00004003a0010028000f1fd2f0030
:1053b00001006000100288000080fa000000060072
:1053c0003600f800809fbe00829fbe00849fbe0012
:1053d000869fbe003200f800002020009001880067
:1053e0000000fa008460a90001f40700362c0200d6
:1053f00000000000000000000080fa003200f90008
:105400004f03be004f02be004f01be004f00be0062
:105410003600f900004006000200fa00000f780094
:105420009e00780064804000800078001e007800b4
:10543000110098009e0078000080eb00a00098000a
:105440009e00780064804000800078001e00780094
:10545000310098009e007800648040008000780051
:105460001e007800410098009e0078000000eb00cc
:10547000800878000080fa00000006000200fa00b0
:10548000000f78009e0078000000eb00c00098003c
:105490000080fa00000006000600fa0010079800dd
:1054a000210798001e00900090009000010f7800e6
:1054b0001e007800900090002e00900011009800cf
:1054c0001e009000900090002e0090002100980097
:1054d0001e007800900090002e009000a000980020
:1054e000ae0090001e00780011009800ae00900001
:1054f0001e009000110098002e0090009e00900069
:10550000410098001e009000100078008000e80024
:105510001e009000010878000080fa0000000600dc
:105520000800fa0020079800310798003e0090001c
:10553000100f78000080eb009e0f100004003a006e
:105540002e009000c0009000110798000c0037005a
:105550002e00900064004000100798000300370000
:105560001e00900090009000110798001e0090000f
:1055700010009000100078009e0f5000f8ff3600d9
:105580001e009000900090003e00900011009800d6
:105590003e009000900090003e009000a000980017
:1055a0003e0090009e00900021009800be009000f8
:1055b0001e009000110098003e009000ae00900088
:1055c000410098002e009000100078008000e80054
:1055d0002e009000010878000080fa00000006000c
:1055e0000400fa00100798001e0090009000900040
:1055f0001e00900020009000a00098001e00900067
:10560000a00090001e0090001000900090009800f4
:105610001e00900040009000000f78001e007800ef
:10562000900090001e009000808f500004003a000f
:105630001e009000a00090001e007800110098004d
:105640009e0090000000eb00c00098001e00780053
:10565000100078008000e9001e0078000108780042
:085660000080fa0000000600c2
:020000040000fa
:105668009e1d0000020000008200000000000000f3
:105678002a1d00003e000000800000009a1d000066
:1056880004000000820000000000ff00ff0000008e
:105698005a1c00006800000080000000a01d0000e7
:1056a8000200000082000000001400005008000002
:1056b8000a14000080000000681d0000200000009f
:1056c80080000000a21d000002000000820000000f
:1056d800ef000000881d000012000000800000009c
:1056e800c21c000068000000800000006e1e000060
:1056f8002600000082000000701e96001e000000b8
:10570800961e090000000000020094001e00000020
:10571800941e0600020100000000000000000000c6
:10572800000006000202000000000000941e0000b5
:105738000600000080000000a41d0000a00000007a
:1057480082000000010000000000000000000a00c4
:1057580000000000000000000064000000000000dd
:1057680000000000e8030000000000000000100036
:10577800270000000000000000a0860001000000d3
:105788000000000040420f00000000000000800000
:1057980096980000000000000000e100f5050000f8
:1057a8000000000000ca9a003b0000000000000052
:1057b800e40b5400020000000000e80076481700df
:1057c800000000000010a500d4e800000000000060
:1057d800a0724e0018090000000040007a10f30083
:1057e8005a0000000080c600a47e8d00030000005f
:1057f80000c16f00f2862300000000008a5d780077
:105808004563010000006400a7b3b600e00d000086
:1058180000e889000423c7008a000000441e000035
:105828002a00000082000000286e75006c6c2900b8
:105838000030310032333400353637003839410012
:1058480042434400454600003031320033343500cd
:10585800363738003961620063646500660000000d
:04586800000000003c
:020000040000fa
:10586c004200f800801f780000022000100288001f
:10587c00811f7800829fbe00849fbe00869fbe0061
:10588c00889fbe008a9fbe008c9fbe008e1f780032
:10589c003600f8005400f8004400f8003200f8001c
:1058ac003400f80010ed8000801f7800d0ec8000f0
:1058bc000f087800ae12020000000000d0ec80004f
:1058cc00900778004f00780010ed88003400f90044
:1058dc003200f9004400f9005400f9003600f900d8
:1058ec004f0778004f06be004f05be004f04be00a8
:1058fc004f03be004f02be004f01be004f00be0062
:08590c004200f9000000060052
:00000001FF
