:020000040000fa
:080000000002040000000000f2
:020000040000fa
:100400004fd121000e7f22000e0188000000000065
:100410000c00070080c5210001002000110007002a
:10042000000020000000e000020032000000020096
:1004300000000000e41b0200000000000040da00a1
:100440000000fe004440a900e00220000000e0009f
:100450000300320000002000a00188004440a800f2
:100460000000060091018800800078000000eb0089
:1004700015003700e280400032a0b4009101ba00bc
:10048000e280400032a0b4009102ba00e280400055
:1004900032a0b4000002eb00472bde00f507b200eb
:1004a000602ce10004003a000059eb008301e900f0
:1004b000fdff3e00040037006128e100010032002a
:1004c0000082eb00040007001101ba000200e00006
:1004d000e8ff3a00000006003159ba008301e90044
:1004e0000c0032002159ba008301e90008003200f3
:1004f0000400e00003003a00e280400032a0b400b3
:10050000f5ff370011d9ba008301e900faff3a007c
:100510008100e800e180400032a0b4000000060045
:1005200000000000000000000000000000000000cb
:100530000040da000000fe0022c2bf00610060003f
:100540000000060032c2bf0061006000000006002b
:100550004211880000118800111188000100370045
:100560003011800022c2bf000008a300fcff3a0047
:100570008560a90000000600c21188008011880073
:100580009111880001003700b011800032c2bf0015
:100590000008a300fcff3a0087c0a9000000060085
:1005a00020c2bf0066406000e64f500002003a00e3
:1005b000301180000000060030118000f00fb20002
:1005c0000000060030c2bf0066406000e64f5000e9
:1005d00002003a00b011800000000600b011800057
:1005e000f00fb200000006008000780020c2bf00bb
:1005f00066406000e64f500001003200f10fb2008b
:1006000021118800000006008000780030c2bf0081
:1006100066406000e64f500001003200f10fb2006a
:10062000a1118800000006008001eb0002003700e5
:1006300061f079008301e800828f5100fcff3a00ed
:10064000000006008001eb00020037008171780095
:100650008301e800828f5100fcff3a000000060091
:100660000003780080027800020278008001eb002d
:10067000080037000402e90063c07800805a78005f
:100680008301e8000004e00002003a008000eb0073
:1006900006003700828f5100f6ff3a00fbff37005b
:1006a0000040eb0080f07a008100e800848f500069
:0c06b000fbff3a00060078000000060086
:020000040000fa
:020000040001f9
:0457f400fffc0000b6
:020000040000fa
:020000040001f9
:0457f8008f700000ae
:020000040000fa
:020000040001f9
:0457fc007f3f0000eb
:020000040000fa
:100008009802000098020000980200009802000080
:100018009802000098020000980200009802000070
:10002800980200009802000098020000f6180000ec
:100038009802000098020000980200009802000050
:100048009802000098020000980200009215000033
:10005800e8150000980200009802000098020000cd
:100068009802000098020000980200009802000020
:100078009802000098020000980200009802000010
:100088009802000098020000980200009802000000
:100098009802000098020000b21a0000fe1a000040
:1000a80098020000980200009802000098020000e0
:1000b80098020000980200009802000098020000d0
:1000c80098020000980200009802000098020000c0
:1000d80098020000980200009802000098020000b0
:1000e80098020000980200009802000098020000a0
:1000f8009802000098020000980200009802000090
:10010800980200009802000098020000980200007f
:10011800980200009802000098020000980200006f
:10012800980200009802000098020000980200005f
:10013800980200009802000098020000980200004f
:10014800980200009802000098020000980200003f
:10015800980200009802000098020000980200002f
:10016800980200009802000098020000980200001f
:10017800980200009802000098020000980200000f
:1001880098020000980200009802000098020000ff
:1001980098020000980200009802000098020000ef
:1001a80098020000980200009802000098020000df
:1001b80098020000980200009802000098020000cf
:1001c80098020000980200009802000098020000bf
:1001d80098020000980200009802000098020000af
:1001e800980200009802000098020000980200009f
:0801f8009802000098020000cb
:020000040000fa
:10020800980200009802000098020000980200007e
:10021800980200009802000098020000980200006e
:10022800980200009802000098020000f6180000ea
:10023800980200009802000098020000980200004e
:100248009802000098020000980200009215000031
:10025800e8150000980200009802000098020000cb
:10026800980200009802000098020000980200001e
:10027800980200009802000098020000980200000e
:1002880098020000980200009802000098020000fe
:100298009802000098020000b21a0000fe1a00003e
:1002a80098020000980200009802000098020000de
:1002b80098020000980200009802000098020000ce
:1002c80098020000980200009802000098020000be
:1002d80098020000980200009802000098020000ae
:1002e800980200009802000098020000980200009e
:1002f800980200009802000098020000980200008e
:10030800980200009802000098020000980200007d
:10031800980200009802000098020000980200006d
:10032800980200009802000098020000980200005d
:10033800980200009802000098020000980200004d
:10034800980200009802000098020000980200003d
:10035800980200009802000098020000980200002d
:10036800980200009802000098020000980200001d
:10037800980200009802000098020000980200000d
:1003880098020000980200009802000098020000fd
:1003980098020000980200009802000098020000ed
:1003a80098020000980200009802000098020000dd
:1003b80098020000980200009802000098020000cd
:1003c80098020000980200009802000098020000bd
:1003d80098020000980200009802000098020000ad
:1003e800980200009802000098020000980200009d
:0803f8009802000098020000c9
:020000040000fa
:1006bc0011110000222200003333000044440000da
:1006cc0055550000666600007777000088880000aa
:1006dc0099990000aaaa0000bbbb0000cccc00007a
:1006ec00dddd0000eeee0000cecd0000acab000076
:1006fc00494400004c450000000000006d61000002
:0c070c00696e0000000000000600000004
:020000040000fa
:100718001600fa0030079800410798005207980021
:100728006307980074079800050f9800160f980043
:10073800270f98009e0890005e009000f0030700c5
:10074800100798001e0090000000e00057003200db
:100758001e009000c0089000010f78001e00900055
:10076800c00890005e00900000004000008040003b
:100778008080e9001e009000710898005e029000d9
:10078800ae0990007e019000ce0090001e009000ff
:100798007a0307006e019000be0090001e007800ea
:1007a800030a0700800078001e0090000108780006
:1007b8000e0890000000e000030032000e089000d0
:1007c8009e009000010878006f0a0700d0e28000c0
:1007d8000000e800d0e2880030e880000000e00077
:1007e80007003a001e00900030e88800d0e2800040
:1007f800e10f50000c003a008a0307000a00370096
:1008080010e380000000e00007003a0030e88000b4
:10081800b00890007e009000808f500002003e00db
:100828009e00900031e888001e009000b0089000fb
:10083800f0e28000808f5000030036001e00900018
:1008480030089000f0e2880060e380000000e800d3
:1008580060e388001e009000b008900000e380006c
:10086800808f5000030036001e0090003008900072
:1008780000e388001e0090000081e8001e00900040
:10088800300890006a00b90080007800e0c62100b6
:100898000080400082007800880a070010002000cd
:1008a80020079800420a0700020037000080eb008a
:1008b800200798002e009000e10f50000b003a002e
:1008c80010e380000000e0000800320030e88000fb
:1008d800b00890007e009000808f50000300310027
:1008e800081c020000000000000000002e0090001c
:1008f8000080fa00000006000a00fa00300798009d
:10090800410798000000eb00000f78008a010700fb
:100918003e009000900078004e009000008040005b
:10092800200798003e00900090007800e0e28000e8
:10093800808f50000c0036003e0090009000780038
:100948002e009000808f500012003600e1e28000f7
:100958002e009000810f50000e003600100020007d
:10096800000f78000b0037003e00900090007800e0
:100978002e009000808f500004003e00e1e28000cd
:100988002e009000810f5000020036001000200059
:10099800000f78003e009000ae009000010878003b
:1009a8001e00e0000500320030e880000080e8000a
:1009b800940a07002e00900039030700640107001d
:1009c800100798001e0090000000e00003003a00a5
:1009d800081c020000000000000000000080fa006f
:1009e800000006000600fa00200798000000eb004f
:1009f800000f78002e0090000000e0000c0032008c
:100a08004d010700e1e280002e00900000804000c8
:100a18001007980030e880000080e800790a070095
:100a28001e0090001e03070049010700000f780010
:100a38001e00e00003003a00081c0200000000004d
:100a4800000000000080fa00000006000c00fa0018
:100a580030079800410798000000eb00000f78006d
:100a68004e009000e30f50000200360030002000d6
:100a780040079800c409070031e880003e00900054
:100a8800810f500002003a000000eb003007980088
:100a98003e0090000000e00003003a0030e88000cb
:100aa8005007980002003700be00900051079800d8
:100ab8005e009000200798002e00900080109000a3
:100ac800110798009e0090004e009000808f500003
:100ad80043003200ce0090001e009000808f50002e
:100ae800060036003e0090000000e00008003200da
:100af80010002000000f7800050037003e0090002d
:100b08000000e00002003a0010002000000f78000a
:100b18002e009000801090002e0090003008900069
:100b2800808f500003003a002e009000ce00900005
:100b3800310898002e009000ce0090000110980017
:100b48004e009000e40010002e0090006100980014
:100b58002e009000500190001e0090006a00b9001d
:100b680080007800e0c6210000804000800f51001e
:100b780015003a002e0090000080e800210a0700c6
:100b88002e009000b008900000e38000808f500095
:100b9800030036002e0090003008900000e3880023
:100ba8002e0090000081e8002e0090003008900090
:100bb8006a00b90080007800e0c62100008040008b
:100bc80082007800bd090700100020009e0f100069
:100bd80003003a00081c02000000000000000000aa
:100be800730907000080fa00000006000600fa00fa
:100bf800100798006409070031e880001e00900083
:100c0800810f500002003a000000eb001007980026
:100c18001e0090000000e00003003a0030e8800069
:100c280020079800020037009e00900021079800d6
:100c38002e009000000f78001e80e800f1090700e0
:100c48001e007800200890000000e0000300320039
:100c58009e0078006c804000ea0907009e80e8004a
:100c680080cb210095090700510907001e0090005c
:100c78000000e0000f003a0010e380000000e000f0
:100c880004003200081c0200000000000000000000
:100c980008003700c1e58000d0e28000808f500056
:100ca80003003a000000eb0030e88800010037003c
:100cb8006a0107000080fa00000006000600fa003a
:100cc800200798000000eb00100798002e00900005
:100cd800000f78001e007800d000900080cb210023
:100ce800808f50000b003a001e007800a00890008a
:100cf800e0ca2100808f5000060032001e007800f4
:100d0800200890000000e00002003a0010002000d7
:100d1800100798001e0090000080fa0000000600ee
:100d28000400fa00100798001e009000000f7800d9
:100d38001e00e0002500320030e880009e0f100001
:100d480022003200100907001e007800dbff0700b0
:100d5800e10f50001c003a001e80e800a9090700b6
:100d68001e007800b008900000e38000808f5000db
:100d7800030036001e0078003008900000e3880069
:100d88001e81e8001e007800300890006a00b90053
:100d980080007800e0c621000080400082007800d2
:100da800460907001e007800b008900030e880006f
:100db80030089000808f500003003900081c0200a2
:100dc8000000000000000000f90807000080fa0099
:100dd800000006000800fa00300798000000eb0049
:100de800200798003e009000100798000000eb00d4
:100df800000f78001e009000b0ff0700e10f5000c0
:100e080027003a0020e380000000e00020003a00bc
:100e18001e0090003009900030e88000b008900073
:100e28000000eb0020079800810f510002003900f4
:100e380010002000200798001e0090000080e800a5
:100e4800700907001e009000b008900000e38000c1
:100e5800808f5000030036001e009000300890007c
:100e680000e388001e0090000081e8001e0090004a
:100e7800300890006a00b90080007800e0c62100c0
:100e880000804000820078000c0907000400370049
:100e98001e009000ec004000e0ca2100070907008e
:100ea8002e0090000080fa00000006000200fa0000
:100eb800e13728008003eb000003eb008002eb0021
:100ec8000002eb008001eb0032072000c0aa2000de
:100ed8000ffe0700000f7800100020009e0f100082
:100ee80009003a0011028000000220000080700012
:100ef800100288001000200010e388000000eb00ba
:100f0800e0e288006f0807000080fa000000060091
:100f18000000fa001102800000022000008070002a
:100f2800100288000000eb0010e388007c0807002e
:100f38000080fa00000006000000fa0020e38000ac
:100f48000000e80020e388000080fa0000000600a6
:100f58000600fa000000eb00100798008a08070056
:100f680020e380000000e90020e3880020e38000ff
:100f78000000e00046003a00d0e280000000e000f7
:100f8800430032000000eb00000f78002300370018
:100f9800a0e580003000900020079800ae00900087
:100fa8006c80400017090700ae0090000180e8003f
:100fb800140907002e009000b008900000e380009c
:100fc800808f500003003600ae009000310890007a
:100fd80000e388002e0090000081e800ae00900039
:100fe800310890006a00b90080007800e0c621004e
:100ff8000080400082007800b00807002e009000b2
:10100800b008900030e8800030089000808f5000d1
:101018000200390010002000000f780070e5800001
:101028000000e000daff3a0030e380000000e00052
:101038000a003200040037002d00070030e380006a
:101048000000e90030e3880030e380000000e000a1
:10105800f9ff3a0010002000000f7800110020006e
:101068009e8f10000300320040e38000e10f500023
:1010780007003a0010002000100798000000eb005d
:1010880040e38800081c0200000000000000000087
:10109800470807001e0090000080fa0000000600c4
:1010a8000200fa0038080700e0e28000000f78002c
:1010b8003f0807001e0078000080fa0000000600c4
:1010c8000400fa000000eb00000f7800e0e2800066
:1010d800100798001e0090000080fa00000006002b
:1010e8000000fa00d0e280000080fa00000006004c
:1010f8000600fa0020e380000000e00052003a00f9
:10110800e0e280000000e800e0e28800e0e2800021
:101118000000e00017003a0050e580001007980032
:1011280060e5800050e588009e00900061e5880039
:1011380050e380000000e80050e3880050e580009c
:10114800100078000000e00003003a000080eb0087
:1011580040e888000700370050e580003000900024
:1011680030009000200798002e009000100090009a
:1011780040e88800e1e2800040e88000808f50006d
:101188003400390050e58000100078000000e000cd
:1011980003003a000080eb0040e888002d0037008b
:1011a80050e5800030009000300090002007980043
:1011b8002e00900090009000010f7800e0e280007f
:1011c8009e0f5000030031001e00780040e88800a0
:1011d800200037002e0090000080e80089080700f2
:1011e8002e009000200890000000e000030032006c
:1011f8002e0090006c004000820807002e0090002e
:10120800b008900000e38000808f50000300360093
:101218002e0090003008900000e388002e00900017
:101228000081e8002e009000300890006a00b900a4
:1012380080007800e0c6210000804000820078002d
:101248001e080700cfff370030e380000000e800e9
:1012580030e388000080fa00000006000200fa006f
:1012680020e380000000e0000600320010002000ab
:1012780040e388002400370000e380000000e90014
:1012880000e3880000e380006a00b900800078006d
:10129800e0c6210000804000100078000000e00057
:1012a800f5ff320000e380006a00b9008000780092
:1012b800e0c62100008f40001e007800100090005a
:1012c800900090001e007800110098001e00780021
:1012d800900090001e01780064004100808f50004b
:1012e80005003a001e007800100090009000900061
:1012f8001e007800110098001e0078001000900071
:101308003000900030e888000080fa0000000600f5
:101318000600fa00100798002107980030e88000be
:10132800ec0040001e0090000608070030e880002e
:101338000080e800330807002e009000e10f40000d
:1013480005003a0030e880008080e80080cb21006a
:10135800da07070005003700e1e280002e00900060
:10136800008f40001e007800cd0007000080fa00c2
:10137800000006000600fa00200798002e009000e2
:101388003000900030009000100798001e00900078
:101398006c0040001b08070020e380000000e0000c
:1013a80016003a001e0090000080e80015080700ab
:1013b8001e009000b008900000e38000808f50006d
:1013c800030036001e0090003008900000e38800fb
:1013d8001e0090000081e8001e0090003008900078
:1013e8006a00b90080007800e0c621000080400053
:1013f80082007800b1070700040037001e00900043
:10140800ec004000e0ca2100ac0707001e00900075
:10141800b008900030e8800030089000808f5000bd
:101428000300390010002000000f78000200370088
:101438000000eb00000f78001e0078000080fa0022
:10144800000006000200fa00000f780051e3800057
:101458001e00780001087800e1e280001e00780094
:10146800110098000080fa00000006000600fa004b
:101478001007980021079800430707002e009000e6
:1014880010007800e10f400003003a000000eb0074
:10149800000f7800250037001e00900090007800ab
:1014a80050e38000808f5000080032001e0090003a
:1014b80090009000e0e28000808f500003003e0022
:1014c80010002000000f780018003700e1e28000cb
:1014d8001e00900010009000808050002e009000a8
:1014e80010007800808f50000e0031002e00900010
:1014f80010017800e1e280001e00900010009000ca
:1015080000805000800051002e00900001087800f3
:101518001e009000cbff07000000eb00000f7800d2
:101528000200370010002000000f78002007070095
:101538001e0078000080fa00000006000000fa0093
:101548001000200040e388000080fa000000060038
:101558000200fa00000f78004e00070070e38000d8
:10156800e10f500003003600081c020000000000d4
:1015780000000000a1080700f7ff37000a00fa0082
:10158800000f780011079800220798003307980089
:10159800440798009e0090001e0178007a004100e0
:1015a800420020002cfc07009e0078000040eb0061
:1015b800d05898002e009000e30f5000020036002b
:1015c80030002000200798001e007800ae00900030
:1015d800310898001e0078002e0190000210980033
:1015e8001e80e8002e0707009e0078006c804000ef
:1015f8002b0707001e0078001e01780042009800a3
:101608002e009000e40010001e0078006100980091
:101618001e0078009e007800110898000080fa00eb
:10162800000006000200fa000000eb00000f78003e
:10163800070037001e0078006a00b90080007800b3
:10164800e0c6210000804000fc0607001e0fe800ed
:10165800300020009e0f1000f6ff360060c9210000
:10166800f606070000ca2100f4060700e0ca2100b8
:10167800f206070080cb2100f006070060c92100b0
:1016880050e5880000ca210060e588000080fa0063
:10169800000006000000fa000080fa0000000600c2
:1016a8000200fa00000f780030e880009e00780001
:1016b80011009800e0e280009e0f10000500310044
:1016c80030e880008080e80060e580001d070700a2
:1016d8000900370030e880008080e80050e580008d
:1016e8001807070040e880009e0f10000200310034
:1016f8001e00780040e888000080fa00000006001c
:101708000800fa001007980021079800200220001e
:101718006f050700000f78001e00e0001d00320072
:101728002e0090000000e00005003a001e00900026
:1017380000004000660507003007980002003700e7
:101748002e009000300798001e007800be00900020
:10175800410898001e007800400890000000e00052
:1017680005003a001e007800de0507000000eb00c7
:10177800000f7800070037001e00900000004000ae
:10178800000178001e00780040089000510a2000ef
:10179800aafb07001e0078000080fa00000006007f
:1017a8000200fa0030e88000000f78001e00780080
:1017b8000080fa00000006000400fa0010079800f4
:1017c8001e009000000f78001e007800b0089000fe
:1017d80030e8800030089000808f50002b003100e6
:1017e80030e8800030089000e40010001e00780007
:1017f800610098001e007800500190001e007800db
:10180800300890006a00b90080007800e0c6210026
:1018180000804000800f510018003a001e80e80048
:10182800f806070030e88000b00890001e00780035
:10183800310898001e007800b008900000e380008e
:10184800808f5000030036001e007800300890009a
:1018580000e388001e81e8001e0078003008900030
:101868006a00b90080007800e0c6210000804000ce
:1018780082007800910607000400370030e88000f5
:10188800b00890001e007800310898000080fa0027
:10189800000006000400fa00100798001e009000df
:1018a800000f78001e0090000000e00022003200c7
:1018b8001e007800b00890001e007800001090000c
:1018c800808f50001c0032001e80e800cd06070003
:1018d8001e007800801090001e00780031089800e3
:1018e8001e00780030089000e40010001e00780008
:1018f800610098001e007800b008900000e38000a6
:10190800808f5000030036001e00780030089000d9
:1019180000e388001e81e8001e007800300890006f
:101928006a00b90080007800e0c62100008040000d
:1019380082007800610607000080fa0000000600b7
:101948000c00fa003007980041079800224f9800d1
:101958000000eb00000f78003e0090000000e0005f
:101968004300320060022000d904070020079800d5
:101978002e0090000000e0003d003200be00900004
:101988004e0090000088b9000000e8001007980099
:101998001e009000ce040700800078002e00900002
:1019a800010878002e009000100078000000e00088
:1019b8002d0032002e00900010017800be0090002b
:1019c8004e0090000088b900800041002e00900071
:1019d80011009800ae0090000000eb00e0089800ad
:1019e8002e009000900078002e00900021009800b2
:1019f8002e009000100178003e0090008000e90061
:101a08004e0090000088b900800041002e00900030
:101a1800310098002e009000be00900071089800d8
:101a28002e009000ce00900001109800ae009000ab
:101a38000080eb0090109800ae0090000080eb0052
:101a4800a01098002e00900068004000fb050700d9
:101a58002e00900072004000f80507002e0090004c
:101a6800000f7800020037002e0090001d050700c7
:101a78001e0078000080fa00000006000400fa004a
:101a8800204798006002200091040700000f7800aa
:101a98001e00e000260032009e0078000000eb00e7
:101aa800900098009e0078000000eb008008780005
:101ab8009e0078000000eb00a00098009e007800cf
:101ac8000000eb00b00098009e0078000000eb00da
:101ad800e00898009e00780010002000f0089800a8
:101ae8009e0078000000eb00801098009e007800af
:101af8000080eb00901098009e0078000080eb00ba
:101b0800a01098009e00780068804000cb05070070
:101b18009e00780072804000c80507008001eb0035
:101b28000001eb008000eb001e00780003000700b6
:101b38001e0078000080fa00000006001000fa007d
:101b480030079800410798005207980063079800eb
:101b58000000eb00000f7800000037008a0507003e
:101b68003e009000e00890003e0090007008900051
:101b7800808f5000140031006e019000ce0090005c
:101b88003e009000590107003e00900010089000a8
:101b98000000e000080032003e00900072004000a3
:101ba800f4fd0700e10f500003003a00081c020092
:101bb80000000000000000007d0507001000200064
:101bc800700798003e0037005e0090000000e000bb
:101bd80004003a00760507000000eb007007980043
:101be800370037001e00e00004003a000e80e800cd
:101bf80014fe070010002000000f78006c05070095
:101c0800cdfc0700600507003e0090001010900012
:101c1800e10f400003003a00be0090000000eb0016
:101c2800901098003e00900020109000e10f4000b6
:101c380003003a00be0090000000eb00a0109800de
:101c48005b050700ea0047000e80e80007fe070072
:101c58000000e00015003a003e009000e401070093
:101c68000000e0000d003200de0090003e00900011
:101c780068004000a6fd07003e0090008a010700aa
:101c8800b3fc07000000e000b4ff3a00081c0200a3
:101c98000000000000000000b0ff37003e00900088
:101ca80081010700aafc0700acff37003e00900046
:101cb8007d010700a6fc07000000eb0070079800f4
:101cc8007e0090000080fa00000006000c00fa0078
:101cd800200798003107980042079800530798009a
:101ce8000000eb00000f78002e009000e008900044
:101cf8002e00900070089000808f50001d00310069
:101d08005e019000be0090002e009000f7000700d2
:101d18002e00900020109000e10f40000d003a00c6
:101d28002e009000100890000000e0000e00320025
:101d38002e009000720040008efd07000000e000b9
:101d480009003200ce0090001000200080087800c2
:101d5800050037002e009000201090008000e80059
:101d68002e00900021109800100020001007980005
:101d7800020037000000eb00100798001e009000da
:101d88000080fa00000006001200fa0040079800e0
:101d98005107980062079800730798000000eb004d
:101da8001007980000003700f70407004e00900065
:101db800600890000000e000360032004e009000fd
:101dc800b0009000010f7800de0090004e009000f7
:101dd800150107007e0090000000e0001a003a009c
:101de8004e009000600890008000e9004e009000ce
:101df800610898004e009000100078000000e00094
:101e080004003a0066fe0700800078004e0090004b
:101e1800110098004e009000400090000000e00083
:101e2800180032004e0090006800400051fd070085
:101e3800e10f500013003a00081c020000000000e7
:101e4800000000000f0037004e0090009e00780050
:101e5800310098004e009000100890000000e0004b
:101e6800080032004e0090007200400041fd07005b
:101e78000000e00003003200081c0200000000001f
:101e880000000000ca04070010002000000f98009e
:101e9800480037006e0090000000e00004003a009f
:101ea800c30407008000eb00010f980041003700d1
:101eb8001e0090000000e00004003a0064004700a3
:101ec80060fd07001000200010079800b804070004
:101ed80019fc0700ac0407004e0090001010900099
:101ee800e10f400003003a00ce0090000000eb0034
:101ef800901098004e00900020109000e10f4000d4
:101f080003003a00ce0090000000eb00a0109800fb
:101f1800a7040700ec0047006400470053fd0700d2
:101f28000000e0001e003a004e0090001401070077
:101f38000000e000160032004e009000100078000b
:101f48000000e00005003a008f0407004e009000f2
:101f58001000900018fe070095040700ee0090009e
:101f68004e00900072004000e9fc07004e0090000f
:101f7800cd000700f6fb07000000e0008aff3a00ea
:101f8800081c0200000000000000000086ff370067
:101f98004e009000c4000700edfb070082ff3700e9
:101fa8004e009000c0000700e9fb07000000eb00ae
:101fb800000f98000e0890000080fa00000006004c
:101fc8000a00fa0020079800310798004207980095
:101fd8000000eb00000f78002e00900060089000d1
:101fe8000000e00021003200be0090002e009000aa
:101ff8008d0007002e009000600890008000e90026
:102008002e009000610898002e009000101090009b
:10201800e10f40000d003a002e00900040009000b3
:102028000000e0000e0032002e0090006800400022
:10203800d0fc07000000e00009003200ce0090004c
:102048001000200080087800050037002e0090005e
:10205800101090008000e8002e00900011109800e9
:102068001000200010079800020037000000eb0065
:10207800100798001e0090000080fa00000006007b
:102088000400fa00100798003f0407001e009000a3
:10209800e0089000010f7800450407001e00780052
:1020a8000080fa00000006000400fa0010079800fb
:1020b8001e009000e0089000010f78001e007800d4
:1020c8000080fa00000006000200fa00000f780005
:1020d8001e00780010007800820307001e007800b8
:1020e800800307000080fa00000006000600fa00de
:1020f800000f780011079800220798001e0078004a
:10210800001090000000e0000b003a001e0078006c
:10211800100078000000e0003c003a001e00780043
:1021280010009000dbfd07009e0078000000eb0027
:1021380090009800350037002e0090000000e00065
:1021480018003a001e007800001190001e00780068
:10215800200090009e00900031f907001e007800d2
:10216800a00090001e0078000010900080804000c1
:102178001e007800210098001e007800a000900042
:102188001e00780010009000808f50001f0039005a
:102198001e007800900078001e007800210098004a
:1021a8001a0037001e007800001190001e00780009
:1021b800300090009e00900019f907001e0078007a
:1021c800b00090001e007800001090008080500041
:1021d8001e007800310098001e007800b0009000c2
:1021e8001e00780010007800808f50000700310032
:1021f8001e007800900090001e00780000109000eb
:10220800808050001e007800310098001e00780081
:10221800600890008000e8001e00780061089800bf
:102228000080fa00000006000400fa00000f7800a1
:10223800110798001e007800100078000000e000e8
:10224800170032001e007800b00090001e007800d1
:1022580000109000808040001e0078003100980037
:102268001e007800b00090001e007800100090005a
:10227800808f5000040039001e007800900078001c
:102288001e007800310098001e00780000119000b0
:102298001e007800b00090001e009000e0f80700d3
:1022a8000080fa00000006000200fa00000f780023
:1022b800b50307000f0037001e00780010089000d3
:1022c8000000e0000f0032009e007800728040009d
:1022d80028fc07000000e0000100320097fc07001e
:1022e8001e007800201090008000e9001e00780091
:1022f800211098001e007800201090000000e000d7
:10230800edff3c009e0078000080eb00a0109800d4
:10231800a70307009c0307000f0037001e00780082
:10232800400090000000e0000f0032009e0078009e
:10233800688040000ffc07000000e0000100320048
:102348007efc07001e007800101090008000e90055
:102358001e007800111098001e00780010109000e0
:102368000000e000edff3c009e0078000080eb00dc
:10237800901098008e0307000080fa000000060005
:102388000400fa00100798007f0307001e00900061
:10239800e00890000000eb00000f78000100e0006a
:1023a80002003a0010002000000f780080030700a8
:1023b8001e0078000080fa00000006000400fa0001
:1023c800100798001e009000e00890000000eb0045
:1023d800000f78000100e00002003a001000200021
:1023e800000f78001e0078000080fa000000060048
:1023f8000400fa0010079800630307001e0090000d
:10240800600990001e009000f00890000000eb00aa
:10241800000f7800810f510002003a0010002000e0
:10242800000f7800620307001e0078000080fa00a1
:10243800000006000400fa00100798001e00900033
:10244800600990001e009000f00890000000eb006a
:10245800000f7800810f510002003a0010002000a0
:10246800000f78001e0078000080fa0000000600c7
:102478000a00fa00200798003107980042079800e0
:10248800c001200012020700000f78001e00e000c3
:102498003a00320070e880000000e00003003a00d3
:1024a8001e00780070e88800030107003e009000d5
:1024b800e10f50000200360010002000300798009d
:1024c8009e0078000000eb00d00898001e007800fd
:1024d800be009000310898001e007800ce009000e1
:1024e800410898001e007800ae00900001087800ae
:1024f8001e80e8006a0307009e0078006c80400098
:10250800670307001e0078009e00780041009800cd
:102518001e0078009e007800110898003e00900088
:10252800e40010001e007800610098001e0078008a
:10253800b008900010e68000808f5000030036003d
:102548001e0078003008900010e688001e81e80020
:102558001e007800300890006a00b90080007800fa
:10256800a0cc2100008040008200780053030700bf
:102578001000200010079800020037000080eb00d0
:10258800100798001e0090000080fa000000060066
:102598000600fa00100798002107980021e680003d
:1025a8001e009000008f400070e880000080e80066
:1025b8009403070070e880009e00780011009800de
:1025c80020e680009e0f10000500310070e88000b2
:1025d8008080e800a0e780005a0307000400370065
:1025e80070e880008080e80090e7800055030700cd
:1025f8002e0090000000e0000400320070e8800027
:10260800ec0040002e0090004e0307000080fa0006
:10261800000006000200fa002100370011028000c5
:10262800000220000080700010028800e0e78000af
:1026380030009000000f78009e0078006c80400009
:102648007003070011028000f0fd2f000080600079
:10265800100288001e80e8006a0307001e00780048
:10266800b008900010e68000808f5000030036000c
:102678001e0078003008900010e688001e81e800ef
:102688001e007800300890006a00b90080007800c9
:10269800a0cc2100008040008200780007030700da
:1026a800b0e780000000e000dcff3a000080fa009c
:1026b800000006000400fa0079fa070031e68000fd
:1026c8000100500040e688004100370020e6800005
:1026d8000000e80020e6880040e680000000e900ed
:1026e80040e6880020e680000000e00034003a0060
:1026f80090e78000000f7800a0e7800090e788004e
:102708001e007800a0e788002d00370090e78000c1
:102718003000900030009000100798001e009000d4
:102728009000900020e68000808f500028003e0036
:102738001102800000022000008070001002880052
:102748001e0090000080e8002e0307001e00900085
:10275800200890000000e000030032001e009000f6
:102768006c0040002703070011028000f0fd2f00d5
:1027780000806000100288001e009000b0089000e1
:1027880010e68000808f5000030036001e00900085
:102798003008900010e688001e0090000081e800d4
:1027a8001e009000300890006a00b9008000780090
:1027b800a0cc21000080400082007800bf02070002
:1027c80090e78000100078000000e000cfff3a009a
:1027d80040e680000000e000bcff3a0020e68000f0
:1027e80030e688000080fa00000006000200fa00c7
:1027f80088ff0700afff07000600370010e68000db
:102808000000e0002a00320010e680000000e90025
:1028180010e6880010e680006a00b90080007800a1
:10282800a0cc210000804000100078000000e000eb
:10283800f2ff320010e680006a00b90080007800dc
:10284800a0cc2100008f40001e00780010009000ee
:10285800900090001e007800110098001e0078007b
:10286800900090001e01780064004100808f5000a5
:1028780005003a001e0078001000900090009000bb
:102888001e007800110098001e00780010009000cb
:102898003000900070e8880070e88000100178002f
:1028a80070e88000c008900070e880000200010015
:1028b8000080fa00000006000200fa000000eb00a9
:1028c800000f7800070037001e0078006a00b90082
:1028d80080007800a0cc210000804000570207004b
:1028e8001e0fe800100020009e0f1000f6ff3600b3
:1028f800e0cd21005102070080ce21004f020700e1
:1029080060cf21004d020700e0cd210090e788004c
:1029180080ce2100a0e788000080fa0000000600b1
:102928000600fa00200798002e0090003000900062
:1029380030009000100798001e0090006c004000c6
:10294800b00207001e009000ec00400060cf21009c
:102958005a0207001e009000b008900070e880003e
:1029680030089000808f50000300390010002000cc
:10297800000f7800020037000000eb00000f78001d
:102988001e0078000080fa00000006000000fa002f
:1029980092012000f175200000c02c00eaf6070023
:1029a8000041eb002100200040002000e4fb07006c
:1029b80010e888000041eb002100200040002000c2
:1029c800dffb070020e888009560a8009580a80034
:1029d8000080fa00000006000200fa00000f7800ec
:1029e8001e00e000030032009560a900cd22a80077
:1029f80008003700cd22a90001003700e6f60700dd
:102a0800cbf607000004e000fcff3a002222a900f0
:102a18009560a8000080fa00000006000600fa0091
:102a28002007980001e880002e009000810f5000d8
:102a38001b0032002e0090000000e0000a00320067
:102a480010002000e4ff070010e880008001eb0080
:102a58000001eb008e007800cbfc0700e10f50006e
:102a6800f9ff32000e0037008e80e80010c0b30076
:102a78009040980020e880008e80e8008001eb00fc
:102a88000081eb002dfc07008580a80010e880007d
:102a98008e80e8008001eb000081eb00bafc0700a3
:102aa8000080fa00000006000400fa0020479800a1
:102ab80010002000d9ff07002e409000004f78003a
:102ac8000040eb001047980020e880008e80e80066
:102ad8008001eb000081eb0018fc07008580a8004e
:102ae8000080fa00000006000400fa0010079800b1
:102af8000000eb00c9ff070010e880008001eb0030
:102b08001e0190008e0078009ffc07001e40780090
:102b18000000fb000080fa00000006003600f80004
:102b2800809fbe00829fbe00849fbe00869fbe001d
:102b38003400f80000002000a00188000400fa001a
:102b48000000eb00000f78008560a9000c0037003a
:102b580091f60700804078000e80e8000148780070
:102b68008e80e8000040eb009040980010e880005c
:102b78008e80e8008001eb000e01780053fc07000e
:102b88006bf607000004e000f1ff3a002222a900da
:102b98001e0078000000e00003003200081c02005c
:102ba80000000000000000000080fa003400f90076
:102bb8004f03be004f02be004f01be004f00be00d3
:102bc8003600f900004006003600f800809fbe007d
:102bd800829fbe00849fbe00869fbe003400f8001e
:102be80000002000a00188000400fa000000eb00ab
:102bf800000f78008580a90023c2bf000042b20000
:102c08000004e0002000320023c2bf0061406000e1
:102c18000004e0001c0032000000eb006eff07001b
:102c280023a2a9008e80e80010c0b300904098004d
:102c380010e880008e80e8008001eb000e0178002b
:102c480022fc07001400370020e880008e80e8008e
:102c58000e017800dafc07000000e0000e003200e8
:102c68000e80e80010409000e14f500002003a004a
:102c780023a2a800080037000e80e8001040780062
:102c88000000fb0056f6070023c2bf006240600048
:102c98000004e000ecff32001e0078000000e000b5
:102ca80003003200081c02000000000000000000c1
:102cb8000080fa003400f9004f03be004f02be0046
:102cc8004f01be004f00be003600f900004006006c
:102cd8001000fa00700798000000eb003007980019
:102ce80095f80700804280000000e00012003a00da
:102cf8002085200090e288000000eb00a0e2880018
:102d080000402100c0e288000000eb00b0e288002b
:102d18002085200020079800ae0090000040210088
:102d280090009800ae00900060c5210080087800ef
:102d380010002000804288007e0090000000e00023
:102d48000d003200511c84007e00900001004000fc
:102d5800700798007e009000610060000004e000a9
:102d680005003200fe009000e0ff2f0000806000a8
:102d78000080e800700798007e0090000000e000e6
:102d880054003200fe009000f03f2100808f500078
:102d980050003e0020c521005007980090e28000b6
:102da8006007980005003700ee0090005107980072
:102db8006e00900090007800610798006e00900007
:102dc800900090007e009000808f50000400310039
:102dd8006e009000100078000000e000f2ff3a005a
:102de800ee00900060c52100808f5000390032004d
:102df8005e0090001000780080007800501c84006d
:102e080000804000300798006e0090009000780025
:102e18005e009000010878006e009000900090001d
:102e28007e00900080805000501c8400000040000c
:102e3800808f500022003600ee0090007e00900047
:102e480000804000400798006e00900090009000bd
:102e58007e009000808050004e0090001100980085
:102e68006e009000fe009000110098004e00900047
:102e780090009000010f780020c5210010079800ed
:102e8800030037001e00900090007800110798009a
:102e98001e00900010007800100090009e0f500057
:102ea800f8ff39001e009000900078004e00900056
:102eb800010878001e009000ce00900001087800fc
:102ec80091e880006e009000100090000080500093
:102ed80090e888001ef807003e0090000080fa0085
:102ee800000006000a00fa00400798004e00900013
:102ef800300798004e0090000000e00023003200e8
:102f0800501c8400800078003e00900001005000b2
:102f180030079800be0090002107980006f80700c7
:102f28002e00900090009000010f780020c521002d
:102f380010079800030037001e00900090007800ea
:102f4800110798001e0090001000780010009000f3
:102f58009e0f5000f8ff39001e0090009000780086
:102f68002e009000010878001e009000ae0090002e
:102f7800010878002e0090009000900090e88000f2
:102f88000080400090e88800f1f707000080fa0010
:102f9800000006000000fa0090e880000080fa00b7
:102fa800000006000000fa000080fa000000060099
:102fb8000a00fa0020079800310798004207980095
:102fc8003e009000100798002e0090009e00900090
:102fd800010878002e0090000080e8002007980083
:102fe800ae0090000000eb00800878002e009000f2
:102ff8000080e80020079800ae0090000000eb0079
:10300800800878002e0090000080e80020079800d3
:103018004e009000800078002e0090000108780093
:103028002e0090000080e800200798000000eb00c8
:10303800000f78000b0037001e0078008000400069
:10304800e035280000804000900078002e009000b5
:10305800010878002e0090000080e8002007980002
:103068001e0fe8001e007800ef0f5000f2ff360038
:10307800210280002e009000010878002e009000a8
:103088000080e80020079800a10180002e00900031
:10309800010878002e0090000080e80020079800c2
:1030a800ae0090000000eb00800878002e00900031
:1030b8000080e800200798002e0090000080fa00a9
:1030c800000006000000fa001800070030e8800041
:1030d800900778004f00780080e888003400f900f5
:1030e8004400f9003200f9003600f9004f07780073
:1030f8004f06be004f05be004f04be004f03be0082
:103108004f02be004f01be004f00be004200f90052
:1031180000000600100020000080fa0000000600f1
:103128000000fa000080fa00000006000400fa001f
:10313800301f200001002000008fbe000000eb00bf
:10314800200888000000eb00000888001e007800b6
:1031580010088800510a200091407800f0c8b30098
:1031680000c060000044a000a5e0b7008460a9008a
:103178009460a8000481a80004a1a90005e1a800a2
:103188000080fa00000006000000fa00110280002a
:1031980000022000008070001002880080e8800093
:1031a8000000e80080e888000080fa0000000600bf
:1031b8000000fa0080e880000000e90080e888004c
:1031c80080e880000000e00004003a00100280005f
:1031d800f1fd2f0001006000100288000080fa0055
:1031e800000006003600f800809fbe00829fbe00e7
:1031f800849fbe00869fbe003400f80000002000b7
:10320800a00188000000fa008460a900b8f7070050
:10321800081c020000000000000000000080fa0006
:103228003400f9004f03be004f02be004f01be003c
:103238004f00be003600f900004006000200fa0008
:10324800000f78009e0078006480400080007800bd
:103258001e007800110098009e0078000080eb00a6
:10326800a00098009e0078006480400080007800ec
:103278001e007800310098009e00780064804000ad
:10328800800078001e007800410098009e007800b9
:103298000000eb00800878000080fa0000000600bb
:1032a8000200fa00000f78009e0078000000eb0092
:1032b800c00098000080fa00000006000600fa002e
:1032c80010079800210798001e00900090009000b9
:1032d800010f78001e007800900090002e009000ea
:1032e800110098001e009000900090002e009000a1
:1032f800210098001e007800900090002e00900099
:10330800a0009800ae0090001e0078001100980000
:10331800ae0090001e009000110098002e00900052
:103328009e009000410098001e0090001000780058
:103338008000e8001e009000010878000080fa0074
:10334800000006000800fa002007980031079800de
:103358003e009000100f78000080eb009e0f1000d8
:1033680004003a002e009000c00090001107980059
:103378000c0037002e0090006400400010079800f1
:10338800030037001e00900090009000110798007d
:103398001e00900010009000100078009e0f500052
:1033a800f8ff36001e009000900090003e0090004c
:1033b800110098003e009000900090003e009000a0
:1033c800a00098003e0090009e0090002100980008
:1033d800be0090001e009000110098003e00900072
:1033e800ae009000410098002e0090001000780078
:1033f8008000e8002e009000010878000080fa00a4
:10340800000006000400fa00100798001e00900053
:10341800900090001e00900020009000a0009800ee
:103428001e009000a00090001e0090001000900068
:10343800900098001e00900040009000000f780057
:103448001e007800900090001e009000808f5000b1
:1034580004003a001e009000a00090001e007800b2
:10346800110098009e0090000000eb00c00098003a
:103478001e007800100078008000e9001e00780027
:10348800010878000080fa00000006000000fa0039
:1034980092012000f175200000c02c0034f40700d0
:1034a8000041eb00110020004000200024f9070033
:1034b80050e888000041eb00110020004000200087
:1034c8001ff9070060e88800310b20009140780060
:1034d80080cfb30000c060000004a000b3e0b700d4
:1034e800310b200091407800f0c8b30000c06000a4
:1034f8000044a000b3e0b70097c0a80097e0a80078
:103508000080fa00000006000200fa00004f780070
:1035180060e880008001eb000081eb008e007800fd
:1035280086f9070087e0a8000080fa00000006007e
:103538000400fa001007980050e880008001eb00b2
:103548001e0190008e0078000ffa07001e407800d8
:103558000000fb000080fa00000006003600f800ba
:10356800809fbe00829fbe00849fbe00869fbe00d3
:103578003400f80000002000a00188000400fa00d0
:103588000000eb00000f780087c0a9000700370093
:103598000af407002047980050e880008e80e80071
:1035a8008001eb000e017800c8f90700e3f307007b
:1035b8000004e000f6ff3a003222a9001e0078005d
:1035c8000000e00003003200081c020000000000b8
:1035d800000000000080fa003400f9004f03be002c
:1035e8004f02be004f01be004f00be003600f9007a
:1035f800004006003600f800809fbe00829fbe0093
:10360800849fbe00869fbe003400f80000002000a2
:10361800a00188000400fa000000eb00000f780009
:1036280087e0a9000900370060e880008e80e80084
:103638000e01780062fa07000000e000070032007f
:103648002e4090000000fb00edf3070033c2bf00de
:10365800624060000004e000f3ff32001e007800c2
:103668000000e00003003200081c02000000000017
:10367800000000000080fa003400f9004f03be008b
:103688004f02be004f01be004f00be003600f900d9
:10369800004006000000fa00113a8000f00b2000fc
:1036a8000081600061042000700520002374200060
:1036b800814978008049780082497800416a200071
:1036c8009140780000ceb30000c060007040b300a5
:1036d800a4e6b700916c20009140780000ceb300ba
:1036e80000c060000024a000c9e6b700816c20007b
:1036f8009140780000ceb30000c060003040b300b5
:10370800c8e6b700616a20009140780000ceb30097
:1037180000c06000b040b300a6e6b700a16c20006e
:103728009140780000ceb30000c060005040b30064
:10373800cae6b700113a800000042000008170003a
:10374800610420007005200023742000814978005e
:1037580080497800824978006840a8006860a8001d
:103768006bc0a8006ba0a8006800a800f0ff2100ab
:10377800601988000000eb00201688000000eb00ac
:1037880060168800f00120000016880000882000dc
:10379800401688000080fa00000006000400fa00c5
:1037a8001007980039ff07000080eb0060ff070052
:1037b800004f78001e40780053ff0700faff3700db
:1037c8000000fa00b3ff0700413828008003eb002f
:1037d8000003eb008002eb00140020008001eb00e6
:1037e8007226200020bd2100c9f30700aff50700ad
:1037f8000000eb000080fa00000006000000fa005c
:103808000080fa00000006004200f800801f7800df
:103818000002200010028800811f7800829fbe00ed
:10382800849fbe00869fbe00889fbe008a9fbe0000
:103838008c9fbe008e1f78003600f8003200f8001a
:103848004400f8003400f80080e88000801f780009
:1038580030e880000f0878003209020000000000fc
:1038680030e88000900778004f00780080e88800f2
:103878003400f9004400f9003200f9003600f9007c
:103888004f0778004f06be004f05be004f04be002c
:103898004f03be004f02be004f01be004f00be00e6
:0838a8004200f90000000600d7
:020000040000fa
:1038b0000e1d0000020000000200000000000000d9
:1038c000c21c00003e00000000000000061d0000b9
:1038d00004000000020000000000ff00ff000000e4
:1038e0005a1c00006800000000000000101d0000cd
:1038f0000200000002000000ef000000121d0000a6
:103900000200000002000000001400005008000047
:103910000a14000000000000001d00000600000066
:10392000000000000a1d000004000000000000006c
:043930000000000093
:00000001FF
